{
  "contractName": "Locker",
  "abi": [
    {
      "inputs": [
        {
          "internalType": "address",
          "name": "admin",
          "type": "address"
        }
      ],
      "stateMutability": "nonpayable",
      "type": "constructor"
    },
    {
      "anonymous": false,
      "inputs": [
        {
          "indexed": true,
          "internalType": "bytes32",
          "name": "role",
          "type": "bytes32"
        },
        {
          "indexed": true,
          "internalType": "bytes32",
          "name": "previousAdminRole",
          "type": "bytes32"
        },
        {
          "indexed": true,
          "internalType": "bytes32",
          "name": "newAdminRole",
          "type": "bytes32"
        }
      ],
      "name": "RoleAdminChanged",
      "type": "event"
    },
    {
      "anonymous": false,
      "inputs": [
        {
          "indexed": true,
          "internalType": "bytes32",
          "name": "role",
          "type": "bytes32"
        },
        {
          "indexed": true,
          "internalType": "address",
          "name": "account",
          "type": "address"
        },
        {
          "indexed": true,
          "internalType": "address",
          "name": "sender",
          "type": "address"
        }
      ],
      "name": "RoleGranted",
      "type": "event"
    },
    {
      "anonymous": false,
      "inputs": [
        {
          "indexed": true,
          "internalType": "bytes32",
          "name": "role",
          "type": "bytes32"
        },
        {
          "indexed": true,
          "internalType": "address",
          "name": "account",
          "type": "address"
        },
        {
          "indexed": true,
          "internalType": "address",
          "name": "sender",
          "type": "address"
        }
      ],
      "name": "RoleRevoked",
      "type": "event"
    },
    {
      "inputs": [],
      "name": "DEFAULT_ADMIN_ROLE",
      "outputs": [
        {
          "internalType": "bytes32",
          "name": "",
          "type": "bytes32"
        }
      ],
      "stateMutability": "view",
      "type": "function",
      "constant": true
    },
    {
      "inputs": [],
      "name": "FACILITATOR_ROLE",
      "outputs": [
        {
          "internalType": "bytes32",
          "name": "",
          "type": "bytes32"
        }
      ],
      "stateMutability": "view",
      "type": "function",
      "constant": true
    },
    {
      "inputs": [
        {
          "internalType": "bytes32",
          "name": "role",
          "type": "bytes32"
        }
      ],
      "name": "getRoleAdmin",
      "outputs": [
        {
          "internalType": "bytes32",
          "name": "",
          "type": "bytes32"
        }
      ],
      "stateMutability": "view",
      "type": "function",
      "constant": true
    },
    {
      "inputs": [
        {
          "internalType": "bytes32",
          "name": "role",
          "type": "bytes32"
        },
        {
          "internalType": "address",
          "name": "account",
          "type": "address"
        }
      ],
      "name": "grantRole",
      "outputs": [],
      "stateMutability": "nonpayable",
      "type": "function"
    },
    {
      "inputs": [
        {
          "internalType": "bytes32",
          "name": "role",
          "type": "bytes32"
        },
        {
          "internalType": "address",
          "name": "account",
          "type": "address"
        }
      ],
      "name": "hasRole",
      "outputs": [
        {
          "internalType": "bool",
          "name": "",
          "type": "bool"
        }
      ],
      "stateMutability": "view",
      "type": "function",
      "constant": true
    },
    {
      "inputs": [
        {
          "internalType": "bytes32",
          "name": "role",
          "type": "bytes32"
        },
        {
          "internalType": "address",
          "name": "account",
          "type": "address"
        }
      ],
      "name": "renounceRole",
      "outputs": [],
      "stateMutability": "nonpayable",
      "type": "function"
    },
    {
      "inputs": [
        {
          "internalType": "bytes32",
          "name": "role",
          "type": "bytes32"
        },
        {
          "internalType": "address",
          "name": "account",
          "type": "address"
        }
      ],
      "name": "revokeRole",
      "outputs": [],
      "stateMutability": "nonpayable",
      "type": "function"
    },
    {
      "inputs": [
        {
          "internalType": "bytes4",
          "name": "interfaceId",
          "type": "bytes4"
        }
      ],
      "name": "supportsInterface",
      "outputs": [
        {
          "internalType": "bool",
          "name": "",
          "type": "bool"
        }
      ],
      "stateMutability": "view",
      "type": "function",
      "constant": true
    },
    {
      "inputs": [],
      "name": "getFacilitatorAddresses",
      "outputs": [
        {
          "internalType": "address[]",
          "name": "",
          "type": "address[]"
        }
      ],
      "stateMutability": "view",
      "type": "function",
      "constant": true
    }
  ],
  "bytecode": "0x60806040523480156200001157600080fd5b50604051620017cf380380620017cf8339818101604052810190620000379190620003ad565b6200004c6000801b826200005360201b60201c565b50620003df565b6200006a8282620000d360201b620003ea1760201c565b7f0424cf38c8834beebcaa33d45624a52f86494e75143c4aef2aafdb8bd68c732e82148015620000af5750620000ad600182620001c460201b620004ca1760201c565b155b15620000cf57620000cd600182620001fc60201b620004fa1760201c565b505b5050565b620000e582826200023460201b60201c565b620001c057600160008084815260200190815260200160002060000160008373ffffffffffffffffffffffffffffffffffffffff1673ffffffffffffffffffffffffffffffffffffffff16815260200190815260200160002060006101000a81548160ff021916908315150217905550620001656200029e60201b60201c565b73ffffffffffffffffffffffffffffffffffffffff168173ffffffffffffffffffffffffffffffffffffffff16837f2f8788117e7eff1d82e926ec794901d17c78024a50270940304540a733656f0d60405160405180910390a45b5050565b6000620001f4836000018373ffffffffffffffffffffffffffffffffffffffff1660001b620002a660201b60201c565b905092915050565b60006200022c836000018373ffffffffffffffffffffffffffffffffffffffff1660001b620002c960201b60201c565b905092915050565b600080600084815260200190815260200160002060000160008373ffffffffffffffffffffffffffffffffffffffff1673ffffffffffffffffffffffffffffffffffffffff16815260200190815260200160002060009054906101000a900460ff16905092915050565b600033905090565b600080836001016000848152602001908152602001600020541415905092915050565b6000620002dd8383620002a660201b60201c565b620003385782600001829080600181540180825580915050600190039060005260206000200160009091909190915055826000018054905083600101600084815260200190815260200160002081905550600190506200033d565b600090505b92915050565b600080fd5b600073ffffffffffffffffffffffffffffffffffffffff82169050919050565b6000620003758262000348565b9050919050565b620003878162000368565b81146200039357600080fd5b50565b600081519050620003a7816200037c565b92915050565b600060208284031215620003c657620003c562000343565b5b6000620003d68482850162000396565b91505092915050565b6113e080620003ef6000396000f3fe608060405234801561001057600080fd5b50600436106100935760003560e01c806391d148541161006657806391d1485414610130578063a217fddf14610160578063a7302b071461017e578063c39829d51461019c578063d547741f146101ba57610093565b806301ffc9a714610098578063248a9ca3146100c85780632f2ff15d146100f857806336568abe14610114575b600080fd5b6100b260048036038101906100ad9190610ca1565b6101d6565b6040516100bf9190610ce9565b60405180910390f35b6100e260048036038101906100dd9190610d3a565b610250565b6040516100ef9190610d76565b60405180910390f35b610112600480360381019061010d9190610def565b61026f565b005b61012e60048036038101906101299190610def565b610298565b005b61014a60048036038101906101459190610def565b61031b565b6040516101579190610ce9565b60405180910390f35b610168610385565b6040516101759190610d76565b60405180910390f35b61018661038c565b6040516101939190610d76565b60405180910390f35b6101a46103b0565b6040516101b19190610eed565b60405180910390f35b6101d460048036038101906101cf9190610def565b6103c1565b005b60007f7965db0b000000000000000000000000000000000000000000000000000000007bffffffffffffffffffffffffffffffffffffffffffffffffffffffff1916827bffffffffffffffffffffffffffffffffffffffffffffffffffffffff1916148061024957506102488261052a565b5b9050919050565b6000806000838152602001908152602001600020600101549050919050565b61027882610250565b61028981610284610594565b61059c565b6102938383610639565b505050565b6102a0610594565b73ffffffffffffffffffffffffffffffffffffffff168173ffffffffffffffffffffffffffffffffffffffff161461030d576040517f08c379a000000000000000000000000000000000000000000000000000000000815260040161030490610f92565b60405180910390fd5b6103178282610690565b5050565b600080600084815260200190815260200160002060000160008373ffffffffffffffffffffffffffffffffffffffff1673ffffffffffffffffffffffffffffffffffffffff16815260200190815260200160002060009054906101000a900460ff16905092915050565b6000801b81565b7f0424cf38c8834beebcaa33d45624a52f86494e75143c4aef2aafdb8bd68c732e81565b60606103bc60016106d3565b905090565b6103ca82610250565b6103db816103d6610594565b61059c565b6103e58383610690565b505050565b6103f4828261031b565b6104c657600160008084815260200190815260200160002060000160008373ffffffffffffffffffffffffffffffffffffffff1673ffffffffffffffffffffffffffffffffffffffff16815260200190815260200160002060006101000a81548160ff02191690831515021790555061046b610594565b73ffffffffffffffffffffffffffffffffffffffff168173ffffffffffffffffffffffffffffffffffffffff16837f2f8788117e7eff1d82e926ec794901d17c78024a50270940304540a733656f0d60405160405180910390a45b5050565b60006104f2836000018373ffffffffffffffffffffffffffffffffffffffff1660001b6106f4565b905092915050565b6000610522836000018373ffffffffffffffffffffffffffffffffffffffff1660001b610717565b905092915050565b60007f01ffc9a7000000000000000000000000000000000000000000000000000000007bffffffffffffffffffffffffffffffffffffffffffffffffffffffff1916827bffffffffffffffffffffffffffffffffffffffffffffffffffffffff1916149050919050565b600033905090565b6105a6828261031b565b610635576105cb8173ffffffffffffffffffffffffffffffffffffffff166014610787565b6105d98360001c6020610787565b6040516020016105ea9291906110c4565b6040516020818303038152906040526040517f08c379a000000000000000000000000000000000000000000000000000000000815260040161062c9190611148565b60405180910390fd5b5050565b61064382826103ea565b7f0424cf38c8834beebcaa33d45624a52f86494e75143c4aef2aafdb8bd68c732e8214801561067a57506106786001826104ca565b155b1561068c5761068a6001826104fa565b505b5050565b61069a82826109c3565b7f0424cf38c8834beebcaa33d45624a52f86494e75143c4aef2aafdb8bd68c732e8214156106cf576106cd600182610aa4565b505b5050565b606060006106e383600001610ad4565b905060608190508092505050919050565b600080836001016000848152602001908152602001600020541415905092915050565b600061072383836106f4565b61077c578260000182908060018154018082558091505060019003906000526020600020016000909190919091505582600001805490508360010160008481526020019081526020016000208190555060019050610781565b600090505b92915050565b60606000600283600261079a91906111a3565b6107a491906111fd565b67ffffffffffffffff8111156107bd576107bc611253565b5b6040519080825280601f01601f1916602001820160405280156107ef5781602001600182028036833780820191505090505b5090507f30000000000000000000000000000000000000000000000000000000000000008160008151811061082757610826611282565b5b60200101907effffffffffffffffffffffffffffffffffffffffffffffffffffffffffffff1916908160001a9053507f78000000000000000000000000000000000000000000000000000000000000008160018151811061088b5761088a611282565b5b60200101907effffffffffffffffffffffffffffffffffffffffffffffffffffffffffffff1916908160001a905350600060018460026108cb91906111a3565b6108d591906111fd565b90505b6001811115610975577f3031323334353637383961626364656600000000000000000000000000000000600f86166010811061091757610916611282565b5b1a60f81b82828151811061092e5761092d611282565b5b60200101907effffffffffffffffffffffffffffffffffffffffffffffffffffffffffffff1916908160001a905350600485901c94508061096e906112b1565b90506108d8565b50600084146109b9576040517f08c379a00000000000000000000000000000000000000000000000000000000081526004016109b090611327565b60405180910390fd5b8091505092915050565b6109cd828261031b565b15610aa057600080600084815260200190815260200160002060000160008373ffffffffffffffffffffffffffffffffffffffff1673ffffffffffffffffffffffffffffffffffffffff16815260200190815260200160002060006101000a81548160ff021916908315150217905550610a45610594565b73ffffffffffffffffffffffffffffffffffffffff168173ffffffffffffffffffffffffffffffffffffffff16837ff6391f5c32d9c69d2a47ea670b442974b53935d1edc7fd64eb21e047a839171b60405160405180910390a45b5050565b6000610acc836000018373ffffffffffffffffffffffffffffffffffffffff1660001b610b30565b905092915050565b606081600001805480602002602001604051908101604052809291908181526020018280548015610b2457602002820191906000526020600020905b815481526020019060010190808311610b10575b50505050509050919050565b60008083600101600084815260200190815260200160002054905060008114610c38576000600182610b629190611347565b9050600060018660000180549050610b7a9190611347565b9050818114610be9576000866000018281548110610b9b57610b9a611282565b5b9060005260206000200154905080876000018481548110610bbf57610bbe611282565b5b90600052602060002001819055508387600101600083815260200190815260200160002081905550505b85600001805480610bfd57610bfc61137b565b5b600190038181906000526020600020016000905590558560010160008681526020019081526020016000206000905560019350505050610c3e565b60009150505b92915050565b600080fd5b60007fffffffff0000000000000000000000000000000000000000000000000000000082169050919050565b610c7e81610c49565b8114610c8957600080fd5b50565b600081359050610c9b81610c75565b92915050565b600060208284031215610cb757610cb6610c44565b5b6000610cc584828501610c8c565b91505092915050565b60008115159050919050565b610ce381610cce565b82525050565b6000602082019050610cfe6000830184610cda565b92915050565b6000819050919050565b610d1781610d04565b8114610d2257600080fd5b50565b600081359050610d3481610d0e565b92915050565b600060208284031215610d5057610d4f610c44565b5b6000610d5e84828501610d25565b91505092915050565b610d7081610d04565b82525050565b6000602082019050610d8b6000830184610d67565b92915050565b600073ffffffffffffffffffffffffffffffffffffffff82169050919050565b6000610dbc82610d91565b9050919050565b610dcc81610db1565b8114610dd757600080fd5b50565b600081359050610de981610dc3565b92915050565b60008060408385031215610e0657610e05610c44565b5b6000610e1485828601610d25565b9250506020610e2585828601610dda565b9150509250929050565b600081519050919050565b600082825260208201905092915050565b6000819050602082019050919050565b610e6481610db1565b82525050565b6000610e768383610e5b565b60208301905092915050565b6000602082019050919050565b6000610e9a82610e2f565b610ea48185610e3a565b9350610eaf83610e4b565b8060005b83811015610ee0578151610ec78882610e6a565b9750610ed283610e82565b925050600181019050610eb3565b5085935050505092915050565b60006020820190508181036000830152610f078184610e8f565b905092915050565b600082825260208201905092915050565b7f416363657373436f6e74726f6c3a2063616e206f6e6c792072656e6f756e636560008201527f20726f6c657320666f722073656c660000000000000000000000000000000000602082015250565b6000610f7c602f83610f0f565b9150610f8782610f20565b604082019050919050565b60006020820190508181036000830152610fab81610f6f565b9050919050565b600081905092915050565b7f416363657373436f6e74726f6c3a206163636f756e7420000000000000000000600082015250565b6000610ff3601783610fb2565b9150610ffe82610fbd565b601782019050919050565b600081519050919050565b60005b83811015611032578082015181840152602081019050611017565b83811115611041576000848401525b50505050565b600061105282611009565b61105c8185610fb2565b935061106c818560208601611014565b80840191505092915050565b7f206973206d697373696e6720726f6c6520000000000000000000000000000000600082015250565b60006110ae601183610fb2565b91506110b982611078565b601182019050919050565b60006110cf82610fe6565b91506110db8285611047565b91506110e6826110a1565b91506110f28284611047565b91508190509392505050565b6000601f19601f8301169050919050565b600061111a82611009565b6111248185610f0f565b9350611134818560208601611014565b61113d816110fe565b840191505092915050565b60006020820190508181036000830152611162818461110f565b905092915050565b6000819050919050565b7f4e487b7100000000000000000000000000000000000000000000000000000000600052601160045260246000fd5b60006111ae8261116a565b91506111b98361116a565b9250817fffffffffffffffffffffffffffffffffffffffffffffffffffffffffffffffff04831182151516156111f2576111f1611174565b5b828202905092915050565b60006112088261116a565b91506112138361116a565b9250827fffffffffffffffffffffffffffffffffffffffffffffffffffffffffffffffff0382111561124857611247611174565b5b828201905092915050565b7f4e487b7100000000000000000000000000000000000000000000000000000000600052604160045260246000fd5b7f4e487b7100000000000000000000000000000000000000000000000000000000600052603260045260246000fd5b60006112bc8261116a565b915060008214156112d0576112cf611174565b5b600182039050919050565b7f537472696e67733a20686578206c656e67746820696e73756666696369656e74600082015250565b6000611311602083610f0f565b915061131c826112db565b602082019050919050565b6000602082019050818103600083015261134081611304565b9050919050565b60006113528261116a565b915061135d8361116a565b9250828210156113705761136f611174565b5b828203905092915050565b7f4e487b7100000000000000000000000000000000000000000000000000000000600052603160045260246000fdfea26469706673582212209d1a1686cbc04204e115500fd56a2d18f1341117f1e0ac595c76fdba44ace48864736f6c634300080c0033",
  "immutableReferences": {},
  "source": "// SPDX-License-Identifier: MIT\npragma solidity >=0.4.22 <0.9.0;\n\nimport \"@openzeppelin/contracts/access/AccessControl.sol\";\nimport \"@openzeppelin/contracts/utils/structs/EnumerableSet.sol\";\n\ncontract Locker is AccessControl {\n  EnumerableSet.AddressSet private facilitators;\n\n  constructor(address admin) {\n    _grantRole(DEFAULT_ADMIN_ROLE, admin);\n  }\n\n  bytes32 public constant FACILITATOR_ROLE = keccak256(\"FACILITATOR_ROLE\");\n\n  function getFacilitatorAddresses() public view returns(address[] memory) {\n    return EnumerableSet.values(facilitators);\n  }\n\n  function _grantRole(bytes32 role, address account) internal override {\n    super._grantRole(role, account);\n    if(role == FACILITATOR_ROLE && !EnumerableSet.contains(facilitators, account)) {\n      EnumerableSet.add(facilitators, account);\n    }\n  }\n\n  function _revokeRole(bytes32 role, address account) internal override {\n    super._revokeRole(role, account);\n\n    if(role == FACILITATOR_ROLE) {\n        EnumerableSet.remove(facilitators,account);\n    }\n  }\n}\n",
  "sourcePath": "/Users/bertrandlarsy/code/theweek/src/blockchain/contracts/Locker.sol",
  "compiler": {
    "name": "solc",
    "version": "0.8.12+commit.f00d7308.Emscripten.clang"
  },
  "schemaVersion": "3.4.6",
  "updatedAt": "2022-03-27T18:45:59.766Z",
  "networkType": "ethereum",
  "devdoc": {
    "kind": "dev",
    "methods": {
      "getRoleAdmin(bytes32)": {
        "details": "Returns the admin role that controls `role`. See {grantRole} and {revokeRole}. To change a role's admin, use {_setRoleAdmin}."
      },
      "grantRole(bytes32,address)": {
        "details": "Grants `role` to `account`. If `account` had not been already granted `role`, emits a {RoleGranted} event. Requirements: - the caller must have ``role``'s admin role."
      },
      "hasRole(bytes32,address)": {
        "details": "Returns `true` if `account` has been granted `role`."
      },
      "renounceRole(bytes32,address)": {
        "details": "Revokes `role` from the calling account. Roles are often managed via {grantRole} and {revokeRole}: this function's purpose is to provide a mechanism for accounts to lose their privileges if they are compromised (such as when a trusted device is misplaced). If the calling account had been revoked `role`, emits a {RoleRevoked} event. Requirements: - the caller must be `account`."
      },
      "revokeRole(bytes32,address)": {
        "details": "Revokes `role` from `account`. If `account` had been granted `role`, emits a {RoleRevoked} event. Requirements: - the caller must have ``role``'s admin role."
      },
      "supportsInterface(bytes4)": {
        "details": "See {IERC165-supportsInterface}."
      }
    },
    "version": 1
  },
  "userdoc": {
    "kind": "user",
    "methods": {},
    "version": 1
  }
}