{
  "contractName": "Locker",
  "abi": [
    {
      "anonymous": false,
      "inputs": [
        {
          "indexed": false,
          "internalType": "address",
          "name": "account",
          "type": "address"
        }
      ],
      "name": "Paused",
      "type": "event"
    },
    {
      "anonymous": false,
      "inputs": [
        {
          "indexed": true,
          "internalType": "bytes32",
          "name": "role",
          "type": "bytes32"
        },
        {
          "indexed": true,
          "internalType": "bytes32",
          "name": "previousAdminRole",
          "type": "bytes32"
        },
        {
          "indexed": true,
          "internalType": "bytes32",
          "name": "newAdminRole",
          "type": "bytes32"
        }
      ],
      "name": "RoleAdminChanged",
      "type": "event"
    },
    {
      "anonymous": false,
      "inputs": [
        {
          "indexed": true,
          "internalType": "bytes32",
          "name": "role",
          "type": "bytes32"
        },
        {
          "indexed": true,
          "internalType": "address",
          "name": "account",
          "type": "address"
        },
        {
          "indexed": true,
          "internalType": "address",
          "name": "sender",
          "type": "address"
        }
      ],
      "name": "RoleGranted",
      "type": "event"
    },
    {
      "anonymous": false,
      "inputs": [
        {
          "indexed": true,
          "internalType": "bytes32",
          "name": "role",
          "type": "bytes32"
        },
        {
          "indexed": true,
          "internalType": "address",
          "name": "account",
          "type": "address"
        },
        {
          "indexed": true,
          "internalType": "address",
          "name": "sender",
          "type": "address"
        }
      ],
      "name": "RoleRevoked",
      "type": "event"
    },
    {
      "anonymous": false,
      "inputs": [
        {
          "indexed": false,
          "internalType": "address",
          "name": "account",
          "type": "address"
        }
      ],
      "name": "Unpaused",
      "type": "event"
    },
    {
      "inputs": [],
      "name": "DEFAULT_ADMIN_ROLE",
      "outputs": [
        {
          "internalType": "bytes32",
          "name": "",
          "type": "bytes32"
        }
      ],
      "stateMutability": "view",
      "type": "function",
      "constant": true
    },
    {
      "inputs": [],
      "name": "FACILITATOR_ROLE",
      "outputs": [
        {
          "internalType": "bytes32",
          "name": "",
          "type": "bytes32"
        }
      ],
      "stateMutability": "view",
      "type": "function",
      "constant": true
    },
    {
      "inputs": [],
      "name": "FUNDS_CLERK_ROLE",
      "outputs": [
        {
          "internalType": "bytes32",
          "name": "",
          "type": "bytes32"
        }
      ],
      "stateMutability": "view",
      "type": "function",
      "constant": true
    },
    {
      "inputs": [],
      "name": "amountToLock",
      "outputs": [
        {
          "internalType": "uint256",
          "name": "",
          "type": "uint256"
        }
      ],
      "stateMutability": "view",
      "type": "function",
      "constant": true
    },
    {
      "inputs": [
        {
          "internalType": "string",
          "name": "",
          "type": "string"
        },
        {
          "internalType": "uint256",
          "name": "",
          "type": "uint256"
        }
      ],
      "name": "eventAddresses",
      "outputs": [
        {
          "internalType": "address",
          "name": "",
          "type": "address"
        }
      ],
      "stateMutability": "view",
      "type": "function",
      "constant": true
    },
    {
      "inputs": [
        {
          "internalType": "string",
          "name": "",
          "type": "string"
        },
        {
          "internalType": "address",
          "name": "",
          "type": "address"
        }
      ],
      "name": "events",
      "outputs": [
        {
          "internalType": "enum Locker.LockedFundStatus",
          "name": "status",
          "type": "uint8"
        },
        {
          "internalType": "uint256",
          "name": "amount",
          "type": "uint256"
        }
      ],
      "stateMutability": "view",
      "type": "function",
      "constant": true
    },
    {
      "inputs": [
        {
          "internalType": "bytes32",
          "name": "role",
          "type": "bytes32"
        }
      ],
      "name": "getRoleAdmin",
      "outputs": [
        {
          "internalType": "bytes32",
          "name": "",
          "type": "bytes32"
        }
      ],
      "stateMutability": "view",
      "type": "function",
      "constant": true
    },
    {
      "inputs": [
        {
          "internalType": "bytes32",
          "name": "role",
          "type": "bytes32"
        },
        {
          "internalType": "address",
          "name": "account",
          "type": "address"
        }
      ],
      "name": "grantRole",
      "outputs": [],
      "stateMutability": "nonpayable",
      "type": "function"
    },
    {
      "inputs": [
        {
          "internalType": "bytes32",
          "name": "role",
          "type": "bytes32"
        },
        {
          "internalType": "address",
          "name": "account",
          "type": "address"
        }
      ],
      "name": "hasRole",
      "outputs": [
        {
          "internalType": "bool",
          "name": "",
          "type": "bool"
        }
      ],
      "stateMutability": "view",
      "type": "function",
      "constant": true
    },
    {
      "inputs": [],
      "name": "paused",
      "outputs": [
        {
          "internalType": "bool",
          "name": "",
          "type": "bool"
        }
      ],
      "stateMutability": "view",
      "type": "function",
      "constant": true
    },
    {
      "inputs": [
        {
          "internalType": "bytes32",
          "name": "role",
          "type": "bytes32"
        },
        {
          "internalType": "address",
          "name": "account",
          "type": "address"
        }
      ],
      "name": "renounceRole",
      "outputs": [],
      "stateMutability": "nonpayable",
      "type": "function"
    },
    {
      "inputs": [
        {
          "internalType": "bytes32",
          "name": "role",
          "type": "bytes32"
        },
        {
          "internalType": "address",
          "name": "account",
          "type": "address"
        }
      ],
      "name": "revokeRole",
      "outputs": [],
      "stateMutability": "nonpayable",
      "type": "function"
    },
    {
      "inputs": [
        {
          "internalType": "bytes4",
          "name": "interfaceId",
          "type": "bytes4"
        }
      ],
      "name": "supportsInterface",
      "outputs": [
        {
          "internalType": "bool",
          "name": "",
          "type": "bool"
        }
      ],
      "stateMutability": "view",
      "type": "function",
      "constant": true
    },
    {
      "inputs": [
        {
          "internalType": "address",
          "name": "admin",
          "type": "address"
        }
      ],
      "name": "initialize",
      "outputs": [],
      "stateMutability": "nonpayable",
      "type": "function"
    },
    {
      "inputs": [
        {
          "internalType": "uint256",
          "name": "newAmountInWei",
          "type": "uint256"
        }
      ],
      "name": "setAmountToLock",
      "outputs": [],
      "stateMutability": "nonpayable",
      "type": "function"
    },
    {
      "inputs": [],
      "name": "getFacilitatorAddresses",
      "outputs": [
        {
          "internalType": "address[]",
          "name": "",
          "type": "address[]"
        }
      ],
      "stateMutability": "view",
      "type": "function",
      "constant": true
    },
    {
      "inputs": [
        {
          "internalType": "string",
          "name": "eventId",
          "type": "string"
        }
      ],
      "name": "lockFunds",
      "outputs": [],
      "stateMutability": "payable",
      "type": "function",
      "payable": true
    },
    {
      "inputs": [
        {
          "internalType": "string",
          "name": "eventId",
          "type": "string"
        }
      ],
      "name": "refund",
      "outputs": [],
      "stateMutability": "nonpayable",
      "type": "function"
    },
    {
      "inputs": [
        {
          "internalType": "string",
          "name": "eventId",
          "type": "string"
        },
        {
          "internalType": "address[]",
          "name": "addressesToRefund",
          "type": "address[]"
        }
      ],
      "name": "finalizeDeposit",
      "outputs": [],
      "stateMutability": "nonpayable",
      "type": "function"
    },
    {
      "inputs": [],
      "name": "withdrawSeizedFundsToDAOTreasure",
      "outputs": [],
      "stateMutability": "nonpayable",
      "type": "function"
    },
    {
      "inputs": [],
      "name": "pause",
      "outputs": [],
      "stateMutability": "nonpayable",
      "type": "function"
    },
    {
      "inputs": [],
      "name": "unpause",
      "outputs": [],
      "stateMutability": "nonpayable",
      "type": "function"
    }
  ],
  "bytecode": "0x608060405234801561001057600080fd5b506133a9806100206000396000f3fe6080604052600436106101355760003560e01c80639c6f4e5d116100ab578063b37c08801161006f578063b37c0880146103e1578063c39829d51461040a578063c4d66de814610435578063d547741f1461045e578063efb3bfa914610487578063fe5f2e88146104c557610135565b80639c6f4e5d1461031e578063a217fddf14610349578063a4cb824a14610374578063a60fb21b1461038b578063a7302b07146103b657610135565b806336568abe116100fd57806336568abe146102225780633f4ba83a1461024b5780635c975abb146102625780638456cb591461028d578063853de185146102a457806391d14854146102e157610135565b806301ffc9a71461013a5780630f7f742a14610177578063151802e9146101a0578063248a9ca3146101bc5780632f2ff15d146101f9575b600080fd5b34801561014657600080fd5b50610161600480360381019061015c9190612262565b6104ee565b60405161016e91906122aa565b60405180910390f35b34801561018357600080fd5b5061019e60048036038101906101999190612380565b610568565b005b6101ba60048036038101906101b59190612401565b610bb0565b005b3480156101c857600080fd5b506101e360048036038101906101de9190612484565b610e91565b6040516101f091906124c0565b60405180910390f35b34801561020557600080fd5b50610220600480360381019061021b9190612539565b610eb1565b005b34801561022e57600080fd5b5061024960048036038101906102449190612539565b610eda565b005b34801561025757600080fd5b50610260610f5d565b005b34801561026e57600080fd5b50610277610fc4565b60405161028491906122aa565b60405180910390f35b34801561029957600080fd5b506102a2610fdb565b005b3480156102b057600080fd5b506102cb60048036038101906102c691906126f0565b611043565b6040516102d8919061275b565b60405180910390f35b3480156102ed57600080fd5b5061030860048036038101906103039190612539565b6110a7565b60405161031591906122aa565b60405180910390f35b34801561032a57600080fd5b50610333611112565b6040516103409190612785565b60405180910390f35b34801561035557600080fd5b5061035e611118565b60405161036b91906124c0565b60405180910390f35b34801561038057600080fd5b5061038961111f565b005b34801561039757600080fd5b506103a06111e6565b6040516103ad91906124c0565b60405180910390f35b3480156103c257600080fd5b506103cb61120a565b6040516103d891906124c0565b60405180910390f35b3480156103ed57600080fd5b50610408600480360381019061040391906127a0565b61122e565b005b34801561041657600080fd5b5061041f61124e565b60405161042c919061288b565b60405180910390f35b34801561044157600080fd5b5061045c600480360381019061045791906128ad565b61125f565b005b34801561046a57600080fd5b5061048560048036038101906104809190612539565b611370565b005b34801561049357600080fd5b506104ae60048036038101906104a991906128da565b611399565b6040516104bc9291906129ad565b60405180910390f35b3480156104d157600080fd5b506104ec60048036038101906104e79190612401565b6113ed565b005b60007f7965db0b000000000000000000000000000000000000000000000000000000007bffffffffffffffffffffffffffffffffffffffffffffffffffffffff1916827bffffffffffffffffffffffffffffffffffffffffffffffffffffffff191614806105615750610560826115d8565b5b9050919050565b610570610fc4565b156105b0576040517f08c379a00000000000000000000000000000000000000000000000000000000081526004016105a790612a33565b60405180910390fd5b6105bd6000801b336110a7565b806105ee57506105ed7f846f7827568b6c3241ebb30d6d2ab6d659ffbc624595d9b6f0ca8719db11d20e336110a7565b5b61062d576040517f08c379a000000000000000000000000000000000000000000000000000000000815260040161062490612a9f565b60405180910390fd5b60008282905060ce8686604051610645929190612aef565b9081526020016040518091039020805490506106619190612b37565b905060008167ffffffffffffffff81111561067f5761067e61258f565b5b6040519080825280602002602001820160405280156106ad5781602001602082028036833780820191505090505b50905060005b8484905081101561084357600060048111156106d2576106d1612936565b5b60cd88886040516106e4929190612aef565b9081526020016040518091039020600087878581811061070757610706612b6b565b5b905060200201602081019061071c91906128ad565b73ffffffffffffffffffffffffffffffffffffffff1673ffffffffffffffffffffffffffffffffffffffff16815260200190815260200160002060000160009054906101000a900460ff16600481111561077957610778612936565b5b141561083057600160cd8888604051610793929190612aef565b908152602001604051809103902060008787858181106107b6576107b5612b6b565b5b90506020020160208101906107cb91906128ad565b73ffffffffffffffffffffffffffffffffffffffff1673ffffffffffffffffffffffffffffffffffffffff16815260200190815260200160002060000160006101000a81548160ff0219169083600481111561082a57610829612936565b5b02179055505b808061083b90612b9a565b9150506106b3565b506000806000905060005b60ce8989604051610860929190612aef565b908152602001604051809103902080549050811015610a2d576000925060005b8787905081101561095a5787878281811061089e5761089d612b6b565b5b90506020020160208101906108b391906128ad565b73ffffffffffffffffffffffffffffffffffffffff1660ce8b8b6040516108db929190612aef565b908152602001604051809103902083815481106108fb576108fa612b6b565b5b9060005260206000200160009054906101000a900473ffffffffffffffffffffffffffffffffffffffff1673ffffffffffffffffffffffffffffffffffffffff16141561094757600193505b808061095290612b9a565b915050610880565b5082610a1a5760ce8989604051610972929190612aef565b9081526020016040518091039020818154811061099257610991612b6b565b5b9060005260206000200160009054906101000a900473ffffffffffffffffffffffffffffffffffffffff168483815181106109d0576109cf612b6b565b5b602002602001019073ffffffffffffffffffffffffffffffffffffffff16908173ffffffffffffffffffffffffffffffffffffffff1681525050600182610a179190612be3565b91505b8080610a2590612b9a565b91505061084e565b5060005b8351811015610ba55760006004811115610a4e57610a4d612936565b5b60cd8a8a604051610a60929190612aef565b90815260200160405180910390206000868481518110610a8357610a82612b6b565b5b602002602001015173ffffffffffffffffffffffffffffffffffffffff1673ffffffffffffffffffffffffffffffffffffffff16815260200190815260200160002060000160009054906101000a900460ff166004811115610ae857610ae7612936565b5b1415610b9257600360cd8a8a604051610b02929190612aef565b90815260200160405180910390206000868481518110610b2557610b24612b6b565b5b602002602001015173ffffffffffffffffffffffffffffffffffffffff1673ffffffffffffffffffffffffffffffffffffffff16815260200190815260200160002060000160006101000a81548160ff02191690836004811115610b8c57610b8b612936565b5b02179055505b8080610b9d90612b9a565b915050610a31565b505050505050505050565b610bb8610fc4565b15610bf8576040517f08c379a0000000000000000000000000000000000000000000000000000000008152600401610bef90612a33565b60405180910390fd5b60cb543414610c3c576040517f08c379a0000000000000000000000000000000000000000000000000000000008152600401610c3390612c85565b60405180910390fd5b600060cd8383604051610c50929190612aef565b908152602001604051809103902060003373ffffffffffffffffffffffffffffffffffffffff1673ffffffffffffffffffffffffffffffffffffffff1681526020019081526020016000206001015414610cdf576040517f08c379a0000000000000000000000000000000000000000000000000000000008152600401610cd690612d17565b60405180910390fd5b600060ce8383604051610cf3929190612aef565b9081526020016040518091039020805490501415610d4a5760cc828290918060018154018082558091505060019003906000526020600020016000909192909192909192909192509190610d48929190612153565b505b60ce8282604051610d5c929190612aef565b9081526020016040518091039020339080600181540180825580915050600190039060005260206000200160009091909190916101000a81548173ffffffffffffffffffffffffffffffffffffffff021916908373ffffffffffffffffffffffffffffffffffffffff160217905550604051806040016040528060006004811115610dea57610de9612936565b5b81526020013481525060cd8383604051610e05929190612aef565b908152602001604051809103902060003373ffffffffffffffffffffffffffffffffffffffff1673ffffffffffffffffffffffffffffffffffffffff16815260200190815260200160002060008201518160000160006101000a81548160ff02191690836004811115610e7b57610e7a612936565b5b0217905550602082015181600101559050505050565b600060656000838152602001908152602001600020600101549050919050565b610eba82610e91565b610ecb81610ec6611642565b61164a565b610ed583836116e7565b505050565b610ee2611642565b73ffffffffffffffffffffffffffffffffffffffff168173ffffffffffffffffffffffffffffffffffffffff1614610f4f576040517f08c379a0000000000000000000000000000000000000000000000000000000008152600401610f4690612da9565b60405180910390fd5b610f598282611786565b5050565b610f65610fc4565b610fa4576040517f08c379a0000000000000000000000000000000000000000000000000000000008152600401610f9b90612e15565b60405180910390fd5b6000801b610fb981610fb4611642565b61164a565b610fc1611811565b50565b6000609760009054906101000a900460ff16905090565b610fe3610fc4565b15611023576040517f08c379a000000000000000000000000000000000000000000000000000000000815260040161101a90612a33565b60405180910390fd5b6000801b61103881611033611642565b61164a565b6110406118b3565b50565b60ce82805160208101820180518482526020830160208501208183528095505050505050818154811061107557600080fd5b906000526020600020016000915091509054906101000a900473ffffffffffffffffffffffffffffffffffffffff1681565b60006065600084815260200190815260200160002060000160008373ffffffffffffffffffffffffffffffffffffffff1673ffffffffffffffffffffffffffffffffffffffff16815260200190815260200160002060009054906101000a900460ff16905092915050565b60cb5481565b6000801b81565b611127610fc4565b15611167576040517f08c379a000000000000000000000000000000000000000000000000000000000815260040161115e90612a33565b60405180910390fd5b6111746000801b336110a7565b806111a557506111a47f846f7827568b6c3241ebb30d6d2ab6d659ffbc624595d9b6f0ca8719db11d20e336110a7565b5b6111e4576040517f08c379a00000000000000000000000000000000000000000000000000000000081526004016111db90612a9f565b60405180910390fd5b565b7f846f7827568b6c3241ebb30d6d2ab6d659ffbc624595d9b6f0ca8719db11d20e81565b7f0424cf38c8834beebcaa33d45624a52f86494e75143c4aef2aafdb8bd68c732e81565b6000801b6112438161123e611642565b61164a565b8160cb819055505050565b606061125a60c9611956565b905090565b600060019054906101000a900460ff166112875760008054906101000a900460ff1615611290565b61128f611977565b5b6112cf576040517f08c379a00000000000000000000000000000000000000000000000000000000081526004016112c690612ea7565b60405180910390fd5b60008060019054906101000a900460ff16159050801561131f576001600060016101000a81548160ff02191690831515021790555060016000806101000a81548160ff0219169083151502179055505b611327611988565b61132f6119d9565b61133c6000801b836116e7565b6753444835ec58000060cb81905550801561136c5760008060016101000a81548160ff0219169083151502179055505b5050565b61137982610e91565b61138a81611385611642565b61164a565b6113948383611786565b505050565b60cd82805160208101820180518482526020830160208501208183528095505050505050602052806000526040600020600091509150508060000160009054906101000a900460ff16908060010154905082565b6113f5610fc4565b15611435576040517f08c379a000000000000000000000000000000000000000000000000000000000815260040161142c90612a33565b60405180910390fd5b600060cd8383604051611449929190612aef565b908152602001604051809103902060003373ffffffffffffffffffffffffffffffffffffffff1673ffffffffffffffffffffffffffffffffffffffff1681526020019081526020016000209050600033905060008260010154116114e2576040517f08c379a00000000000000000000000000000000000000000000000000000000081526004016114d990612f13565b60405180910390fd5b600160048111156114f6576114f5612936565b5b8260000160009054906101000a900460ff16600481111561151a57611519612936565b5b1461155a576040517f08c379a000000000000000000000000000000000000000000000000000000000815260040161155190612fa5565b60405180910390fd5b60028260000160006101000a81548160ff0219169083600481111561158257611581612936565b5b02179055508073ffffffffffffffffffffffffffffffffffffffff166108fc83600101549081150290604051600060405180830381858888f193505050501580156115d1573d6000803e3d6000fd5b5050505050565b60007f01ffc9a7000000000000000000000000000000000000000000000000000000007bffffffffffffffffffffffffffffffffffffffffffffffffffffffff1916827bffffffffffffffffffffffffffffffffffffffffffffffffffffffff1916149050919050565b600033905090565b61165482826110a7565b6116e3576116798173ffffffffffffffffffffffffffffffffffffffff166014611a32565b6116878360001c6020611a32565b6040516020016116989291906130cc565b6040516020818303038152906040526040517f08c379a00000000000000000000000000000000000000000000000000000000081526004016116da919061313f565b60405180910390fd5b5050565b6116ef610fc4565b1561172f576040517f08c379a000000000000000000000000000000000000000000000000000000000815260040161172690612a33565b60405180910390fd5b6117398282611c6e565b7f0424cf38c8834beebcaa33d45624a52f86494e75143c4aef2aafdb8bd68c732e82148015611770575061176e60c982611d4f565b155b156117825761178060c982611d7f565b505b5050565b61178e610fc4565b156117ce576040517f08c379a00000000000000000000000000000000000000000000000000000000081526004016117c590612a33565b60405180910390fd5b6117d88282611daf565b7f0424cf38c8834beebcaa33d45624a52f86494e75143c4aef2aafdb8bd68c732e82141561180d5761180b60c982611e91565b505b5050565b611819610fc4565b611858576040517f08c379a000000000000000000000000000000000000000000000000000000000815260040161184f90612e15565b60405180910390fd5b6000609760006101000a81548160ff0219169083151502179055507f5db9ee0a495bf2e6ff9c91a7834c1ba4fdd244a5e8aa4e537bd38aeae4b073aa61189c611642565b6040516118a9919061275b565b60405180910390a1565b6118bb610fc4565b156118fb576040517f08c379a00000000000000000000000000000000000000000000000000000000081526004016118f290612a33565b60405180910390fd5b6001609760006101000a81548160ff0219169083151502179055507f62e78cea01bee320cd4e420270b5ea74000d11b0c9f74754ebdbfc544b05a25861193f611642565b60405161194c919061275b565b60405180910390a1565b6060600061196683600001611ec1565b905060608190508092505050919050565b600061198230611f1d565b15905090565b600060019054906101000a900460ff166119d7576040517f08c379a00000000000000000000000000000000000000000000000000000000081526004016119ce906131d3565b60405180910390fd5b565b600060019054906101000a900460ff16611a28576040517f08c379a0000000000000000000000000000000000000000000000000000000008152600401611a1f906131d3565b60405180910390fd5b611a30611f40565b565b606060006002836002611a4591906131f3565b611a4f9190612be3565b67ffffffffffffffff811115611a6857611a6761258f565b5b6040519080825280601f01601f191660200182016040528015611a9a5781602001600182028036833780820191505090505b5090507f300000000000000000000000000000000000000000000000000000000000000081600081518110611ad257611ad1612b6b565b5b60200101907effffffffffffffffffffffffffffffffffffffffffffffffffffffffffffff1916908160001a9053507f780000000000000000000000000000000000000000000000000000000000000081600181518110611b3657611b35612b6b565b5b60200101907effffffffffffffffffffffffffffffffffffffffffffffffffffffffffffff1916908160001a90535060006001846002611b7691906131f3565b611b809190612be3565b90505b6001811115611c20577f3031323334353637383961626364656600000000000000000000000000000000600f861660108110611bc257611bc1612b6b565b5b1a60f81b828281518110611bd957611bd8612b6b565b5b60200101907effffffffffffffffffffffffffffffffffffffffffffffffffffffffffffff1916908160001a905350600485901c945080611c199061324d565b9050611b83565b5060008414611c64576040517f08c379a0000000000000000000000000000000000000000000000000000000008152600401611c5b906132c3565b60405180910390fd5b8091505092915050565b611c7882826110a7565b611d4b5760016065600084815260200190815260200160002060000160008373ffffffffffffffffffffffffffffffffffffffff1673ffffffffffffffffffffffffffffffffffffffff16815260200190815260200160002060006101000a81548160ff021916908315150217905550611cf0611642565b73ffffffffffffffffffffffffffffffffffffffff168173ffffffffffffffffffffffffffffffffffffffff16837f2f8788117e7eff1d82e926ec794901d17c78024a50270940304540a733656f0d60405160405180910390a45b5050565b6000611d77836000018373ffffffffffffffffffffffffffffffffffffffff1660001b611fac565b905092915050565b6000611da7836000018373ffffffffffffffffffffffffffffffffffffffff1660001b611fcf565b905092915050565b611db982826110a7565b15611e8d5760006065600084815260200190815260200160002060000160008373ffffffffffffffffffffffffffffffffffffffff1673ffffffffffffffffffffffffffffffffffffffff16815260200190815260200160002060006101000a81548160ff021916908315150217905550611e32611642565b73ffffffffffffffffffffffffffffffffffffffff168173ffffffffffffffffffffffffffffffffffffffff16837ff6391f5c32d9c69d2a47ea670b442974b53935d1edc7fd64eb21e047a839171b60405160405180910390a45b5050565b6000611eb9836000018373ffffffffffffffffffffffffffffffffffffffff1660001b61203f565b905092915050565b606081600001805480602002602001604051908101604052809291908181526020018280548015611f1157602002820191906000526020600020905b815481526020019060010190808311611efd575b50505050509050919050565b6000808273ffffffffffffffffffffffffffffffffffffffff163b119050919050565b600060019054906101000a900460ff16611f8f576040517f08c379a0000000000000000000000000000000000000000000000000000000008152600401611f86906131d3565b60405180910390fd5b6000609760006101000a81548160ff021916908315150217905550565b600080836001016000848152602001908152602001600020541415905092915050565b6000611fdb8383611fac565b612034578260000182908060018154018082558091505060019003906000526020600020016000909190919091505582600001805490508360010160008481526020019081526020016000208190555060019050612039565b600090505b92915050565b600080836001016000848152602001908152602001600020549050600081146121475760006001826120719190612b37565b90506000600186600001805490506120899190612b37565b90508181146120f85760008660000182815481106120aa576120a9612b6b565b5b90600052602060002001549050808760000184815481106120ce576120cd612b6b565b5b90600052602060002001819055508387600101600083815260200190815260200160002081905550505b8560000180548061210c5761210b6132e3565b5b60019003818190600052602060002001600090559055856001016000868152602001908152602001600020600090556001935050505061214d565b60009150505b92915050565b82805461215f90613341565b90600052602060002090601f01602090048101928261218157600085556121c8565b82601f1061219a57803560ff19168380011785556121c8565b828001600101855582156121c8579182015b828111156121c75782358255916020019190600101906121ac565b5b5090506121d591906121d9565b5090565b5b808211156121f25760008160009055506001016121da565b5090565b6000604051905090565b600080fd5b600080fd5b60007fffffffff0000000000000000000000000000000000000000000000000000000082169050919050565b61223f8161220a565b811461224a57600080fd5b50565b60008135905061225c81612236565b92915050565b60006020828403121561227857612277612200565b5b60006122868482850161224d565b91505092915050565b60008115159050919050565b6122a48161228f565b82525050565b60006020820190506122bf600083018461229b565b92915050565b600080fd5b600080fd5b600080fd5b60008083601f8401126122ea576122e96122c5565b5b8235905067ffffffffffffffff811115612307576123066122ca565b5b602083019150836001820283011115612323576123226122cf565b5b9250929050565b60008083601f8401126123405761233f6122c5565b5b8235905067ffffffffffffffff81111561235d5761235c6122ca565b5b602083019150836020820283011115612379576123786122cf565b5b9250929050565b6000806000806040858703121561239a57612399612200565b5b600085013567ffffffffffffffff8111156123b8576123b7612205565b5b6123c4878288016122d4565b9450945050602085013567ffffffffffffffff8111156123e7576123e6612205565b5b6123f38782880161232a565b925092505092959194509250565b6000806020838503121561241857612417612200565b5b600083013567ffffffffffffffff81111561243657612435612205565b5b612442858286016122d4565b92509250509250929050565b6000819050919050565b6124618161244e565b811461246c57600080fd5b50565b60008135905061247e81612458565b92915050565b60006020828403121561249a57612499612200565b5b60006124a88482850161246f565b91505092915050565b6124ba8161244e565b82525050565b60006020820190506124d560008301846124b1565b92915050565b600073ffffffffffffffffffffffffffffffffffffffff82169050919050565b6000612506826124db565b9050919050565b612516816124fb565b811461252157600080fd5b50565b6000813590506125338161250d565b92915050565b600080604083850312156125505761254f612200565b5b600061255e8582860161246f565b925050602061256f85828601612524565b9150509250929050565b600080fd5b6000601f19601f8301169050919050565b7f4e487b7100000000000000000000000000000000000000000000000000000000600052604160045260246000fd5b6125c78261257e565b810181811067ffffffffffffffff821117156125e6576125e561258f565b5b80604052505050565b60006125f96121f6565b905061260582826125be565b919050565b600067ffffffffffffffff8211156126255761262461258f565b5b61262e8261257e565b9050602081019050919050565b82818337600083830152505050565b600061265d6126588461260a565b6125ef565b90508281526020810184848401111561267957612678612579565b5b61268484828561263b565b509392505050565b600082601f8301126126a1576126a06122c5565b5b81356126b184826020860161264a565b91505092915050565b6000819050919050565b6126cd816126ba565b81146126d857600080fd5b50565b6000813590506126ea816126c4565b92915050565b6000806040838503121561270757612706612200565b5b600083013567ffffffffffffffff81111561272557612724612205565b5b6127318582860161268c565b9250506020612742858286016126db565b9150509250929050565b612755816124fb565b82525050565b6000602082019050612770600083018461274c565b92915050565b61277f816126ba565b82525050565b600060208201905061279a6000830184612776565b92915050565b6000602082840312156127b6576127b5612200565b5b60006127c4848285016126db565b91505092915050565b600081519050919050565b600082825260208201905092915050565b6000819050602082019050919050565b612802816124fb565b82525050565b600061281483836127f9565b60208301905092915050565b6000602082019050919050565b6000612838826127cd565b61284281856127d8565b935061284d836127e9565b8060005b8381101561287e5781516128658882612808565b975061287083612820565b925050600181019050612851565b5085935050505092915050565b600060208201905081810360008301526128a5818461282d565b905092915050565b6000602082840312156128c3576128c2612200565b5b60006128d184828501612524565b91505092915050565b600080604083850312156128f1576128f0612200565b5b600083013567ffffffffffffffff81111561290f5761290e612205565b5b61291b8582860161268c565b925050602061292c85828601612524565b9150509250929050565b7f4e487b7100000000000000000000000000000000000000000000000000000000600052602160045260246000fd5b6005811061297657612975612936565b5b50565b600081905061298782612965565b919050565b600061299782612979565b9050919050565b6129a78161298c565b82525050565b60006040820190506129c2600083018561299e565b6129cf6020830184612776565b9392505050565b600082825260208201905092915050565b7f5061757361626c653a2070617573656400000000000000000000000000000000600082015250565b6000612a1d6010836129d6565b9150612a28826129e7565b602082019050919050565b60006020820190508181036000830152612a4c81612a10565b9050919050565b7f556e617574686f72697a65640000000000000000000000000000000000000000600082015250565b6000612a89600c836129d6565b9150612a9482612a53565b602082019050919050565b60006020820190508181036000830152612ab881612a7c565b9050919050565b600081905092915050565b6000612ad68385612abf565b9350612ae383858461263b565b82840190509392505050565b6000612afc828486612aca565b91508190509392505050565b7f4e487b7100000000000000000000000000000000000000000000000000000000600052601160045260246000fd5b6000612b42826126ba565b9150612b4d836126ba565b925082821015612b6057612b5f612b08565b5b828203905092915050565b7f4e487b7100000000000000000000000000000000000000000000000000000000600052603260045260246000fd5b6000612ba5826126ba565b91507fffffffffffffffffffffffffffffffffffffffffffffffffffffffffffffffff821415612bd857612bd7612b08565b5b600182019050919050565b6000612bee826126ba565b9150612bf9836126ba565b9250827fffffffffffffffffffffffffffffffffffffffffffffffffffffffffffffffff03821115612c2e57612c2d612b08565b5b828201905092915050565b7f496e76616c696420616d6f756e74000000000000000000000000000000000000600082015250565b6000612c6f600e836129d6565b9150612c7a82612c39565b602082019050919050565b60006020820190508181036000830152612c9e81612c62565b9050919050565b7f416c7265616479206c6f636b65642066756e647320666f72207468697320657660008201527f656e740000000000000000000000000000000000000000000000000000000000602082015250565b6000612d016023836129d6565b9150612d0c82612ca5565b604082019050919050565b60006020820190508181036000830152612d3081612cf4565b9050919050565b7f416363657373436f6e74726f6c3a2063616e206f6e6c792072656e6f756e636560008201527f20726f6c657320666f722073656c660000000000000000000000000000000000602082015250565b6000612d93602f836129d6565b9150612d9e82612d37565b604082019050919050565b60006020820190508181036000830152612dc281612d86565b9050919050565b7f5061757361626c653a206e6f7420706175736564000000000000000000000000600082015250565b6000612dff6014836129d6565b9150612e0a82612dc9565b602082019050919050565b60006020820190508181036000830152612e2e81612df2565b9050919050565b7f496e697469616c697a61626c653a20636f6e747261637420697320616c72656160008201527f647920696e697469616c697a6564000000000000000000000000000000000000602082015250565b6000612e91602e836129d6565b9150612e9c82612e35565b604082019050919050565b60006020820190508181036000830152612ec081612e84565b9050919050565b7f4e6f206c6f636b65642066756e6420666f756e642e0000000000000000000000600082015250565b6000612efd6015836129d6565b9150612f0882612ec7565b602082019050919050565b60006020820190508181036000830152612f2c81612ef0565b9050919050565b7f46756e647320617265206e6f74206d61726b656420617320726566756e64616260008201527f6c65000000000000000000000000000000000000000000000000000000000000602082015250565b6000612f8f6022836129d6565b9150612f9a82612f33565b604082019050919050565b60006020820190508181036000830152612fbe81612f82565b9050919050565b7f416363657373436f6e74726f6c3a206163636f756e7420000000000000000000600082015250565b6000612ffb601783612abf565b915061300682612fc5565b601782019050919050565b600081519050919050565b60005b8381101561303a57808201518184015260208101905061301f565b83811115613049576000848401525b50505050565b600061305a82613011565b6130648185612abf565b935061307481856020860161301c565b80840191505092915050565b7f206973206d697373696e6720726f6c6520000000000000000000000000000000600082015250565b60006130b6601183612abf565b91506130c182613080565b601182019050919050565b60006130d782612fee565b91506130e3828561304f565b91506130ee826130a9565b91506130fa828461304f565b91508190509392505050565b600061311182613011565b61311b81856129d6565b935061312b81856020860161301c565b6131348161257e565b840191505092915050565b600060208201905081810360008301526131598184613106565b905092915050565b7f496e697469616c697a61626c653a20636f6e7472616374206973206e6f74206960008201527f6e697469616c697a696e67000000000000000000000000000000000000000000602082015250565b60006131bd602b836129d6565b91506131c882613161565b604082019050919050565b600060208201905081810360008301526131ec816131b0565b9050919050565b60006131fe826126ba565b9150613209836126ba565b9250817fffffffffffffffffffffffffffffffffffffffffffffffffffffffffffffffff048311821515161561324257613241612b08565b5b828202905092915050565b6000613258826126ba565b9150600082141561326c5761326b612b08565b5b600182039050919050565b7f537472696e67733a20686578206c656e67746820696e73756666696369656e74600082015250565b60006132ad6020836129d6565b91506132b882613277565b602082019050919050565b600060208201905081810360008301526132dc816132a0565b9050919050565b7f4e487b7100000000000000000000000000000000000000000000000000000000600052603160045260246000fd5b7f4e487b7100000000000000000000000000000000000000000000000000000000600052602260045260246000fd5b6000600282049050600182168061335957607f821691505b6020821081141561336d5761336c613312565b5b5091905056fea26469706673582212202938e55100b7346c09150925de11b569f1884f32e700e0896b0caaf2fa2e9a7664736f6c634300080c0033",
  "immutableReferences": {},
  "source": "// SPDX-License-Identifier: MIT\npragma solidity >=0.4.22 <0.9.0;\n\nimport \"@openzeppelin/contracts-upgradeable/access/AccessControlUpgradeable.sol\";\nimport \"@openzeppelin/contracts/utils/structs/EnumerableSet.sol\";\nimport \"@openzeppelin/contracts-upgradeable/security/PausableUpgradeable.sol\";\nimport \"@openzeppelin/contracts-upgradeable/proxy/utils/Initializable.sol\";\n\n\ncontract Locker is Initializable, AccessControlUpgradeable, PausableUpgradeable {\n  EnumerableSet.AddressSet private _facilitators;\n  uint public amountToLock;\n  enum LockedFundStatus {\n    pending, \n    toBeRefunded,\n    refunded,\n    toBeSeized,\n    seized\n  }\n  struct LockedFund {\n    LockedFundStatus status;\n    uint amount;\n  }\n  string[] eventIds;\n\n  // maps events to funds locked by individual addresses\n  mapping(string => mapping(address => LockedFund)) public events;\n  mapping(string => address[]) public eventAddresses;\n\n  function initialize (address admin) public initializer {\n    AccessControlUpgradeable.__AccessControl_init();\n    PausableUpgradeable.__Pausable_init();\n    _grantRole(DEFAULT_ADMIN_ROLE, admin);\n    amountToLock = 6000000000000000000;\n  }\n\n  function setAmountToLock (uint newAmountInWei) public onlyRole(DEFAULT_ADMIN_ROLE) {\n    amountToLock = newAmountInWei;\n  }\n\n  bytes32 public constant FACILITATOR_ROLE = keccak256(\"FACILITATOR_ROLE\");\n  bytes32 public constant FUNDS_CLERK_ROLE = keccak256(\"FUNDS_CLERK_ROLE\");\n\n  function getFacilitatorAddresses() public view returns(address[] memory) {\n    return EnumerableSet.values(_facilitators);\n  }\n\n  function _grantRole(bytes32 role, address account) internal override whenNotPaused {\n    super._grantRole(role, account);\n    if(role == FACILITATOR_ROLE && !EnumerableSet.contains(_facilitators, account)) {\n      EnumerableSet.add(_facilitators, account);\n    }\n  }\n\n  function _revokeRole(bytes32 role, address account) internal override whenNotPaused {\n    super._revokeRole(role, account);\n    if(role == FACILITATOR_ROLE) {\n        EnumerableSet.remove(_facilitators,account);\n    }\n  }\n\n  function lockFunds(string calldata eventId) public payable whenNotPaused {\n    require(msg.value == amountToLock, 'Invalid amount');\n    // Checks the same address did not already lock funds for the same event\n    require(events[eventId][msg.sender].amount == 0, 'Already locked funds for this event');\n    if(eventAddresses[eventId].length == 0) {\n      eventIds.push(eventId);\n    }\n    eventAddresses[eventId].push(msg.sender);\n    events[eventId][msg.sender] = LockedFund(LockedFundStatus.pending, msg.value);\n  }\n\n  function refund(string calldata eventId) public whenNotPaused {\n    LockedFund storage lockedFund= events[eventId][msg.sender];\n    address payable target = payable(msg.sender);\n    require(lockedFund.amount > 0, 'No locked fund found.');\n    require(lockedFund.status == LockedFundStatus.toBeRefunded, 'Funds are not marked as refundable');\n    lockedFund.status = LockedFundStatus.refunded;\n    target.transfer(lockedFund.amount);\n  }\n\n  function finalizeDeposit(string calldata eventId, address[] calldata addressesToRefund) public whenNotPaused {\n    require(hasRole(DEFAULT_ADMIN_ROLE ,msg.sender) || hasRole(FUNDS_CLERK_ROLE, msg.sender), 'Unauthorized');\n    uint numberOfaddressesToSeize = uint(eventAddresses[eventId].length) - uint(addressesToRefund.length);\n    address[] memory addressesToSeize = new address[](numberOfaddressesToSeize);\n\n    for (uint i = 0; i < addressesToRefund.length; i++) {\n        if(events[eventId][addressesToRefund[i]].status == LockedFundStatus.pending){\n          events[eventId][addressesToRefund[i]].status = LockedFundStatus.toBeRefunded;\n        }\n    }\n\n    //automatically mark all other addresses as seizable\n    bool refunded;\n    uint currentToSeizeIndex = 0;\n    for (uint i = 0; i < eventAddresses[eventId].length; i ++) {\n        refunded = false;\n        for (uint j = 0; j < addressesToRefund.length; j ++) {\n          if(eventAddresses[eventId][i] == addressesToRefund[j]) {\n            refunded = true;\n          }\n        }\n        if(!refunded) {\n          addressesToSeize[currentToSeizeIndex] = eventAddresses[eventId][i];\n          currentToSeizeIndex = currentToSeizeIndex + 1;\n        }\n    }\n    for (uint i = 0; i < addressesToSeize.length; i++) {\n        if(events[eventId][addressesToSeize[i]].status == LockedFundStatus.pending){\n          events[eventId][addressesToSeize[i]].status = LockedFundStatus.toBeSeized;\n        }\n    }\n  }\n\n  function withdrawSeizedFundsToDAOTreasure() public whenNotPaused {\n    require(hasRole(DEFAULT_ADMIN_ROLE ,msg.sender) || hasRole(FUNDS_CLERK_ROLE, msg.sender), 'Unauthorized');\n\n  }\n\n  function pause() public whenNotPaused onlyRole(DEFAULT_ADMIN_ROLE) {\n    _pause();\n  }\n\n  function unpause() public whenPaused onlyRole(DEFAULT_ADMIN_ROLE) {\n    _unpause();\n  }\n}\n",
  "sourcePath": "/Users/bertrandlarsy/code/theweek/src/blockchain/contracts/Locker.sol",
  "compiler": {
    "name": "solc",
    "version": "0.8.12+commit.f00d7308.Emscripten.clang"
  },
  "schemaVersion": "3.4.6",
  "updatedAt": "2022-04-29T08:29:42.898Z",
  "networkType": "ethereum",
  "devdoc": {
    "kind": "dev",
    "methods": {
      "getRoleAdmin(bytes32)": {
        "details": "Returns the admin role that controls `role`. See {grantRole} and {revokeRole}. To change a role's admin, use {_setRoleAdmin}."
      },
      "grantRole(bytes32,address)": {
        "details": "Grants `role` to `account`. If `account` had not been already granted `role`, emits a {RoleGranted} event. Requirements: - the caller must have ``role``'s admin role."
      },
      "hasRole(bytes32,address)": {
        "details": "Returns `true` if `account` has been granted `role`."
      },
      "paused()": {
        "details": "Returns true if the contract is paused, and false otherwise."
      },
      "renounceRole(bytes32,address)": {
        "details": "Revokes `role` from the calling account. Roles are often managed via {grantRole} and {revokeRole}: this function's purpose is to provide a mechanism for accounts to lose their privileges if they are compromised (such as when a trusted device is misplaced). If the calling account had been revoked `role`, emits a {RoleRevoked} event. Requirements: - the caller must be `account`."
      },
      "revokeRole(bytes32,address)": {
        "details": "Revokes `role` from `account`. If `account` had been granted `role`, emits a {RoleRevoked} event. Requirements: - the caller must have ``role``'s admin role."
      },
      "supportsInterface(bytes4)": {
        "details": "See {IERC165-supportsInterface}."
      }
    },
    "version": 1
  },
  "userdoc": {
    "kind": "user",
    "methods": {},
    "version": 1
  }
}