{
  "contractName": "Locker",
  "abi": [
    {
      "anonymous": false,
      "inputs": [
        {
          "indexed": false,
          "internalType": "address",
          "name": "account",
          "type": "address"
        }
      ],
      "name": "Paused",
      "type": "event"
    },
    {
      "anonymous": false,
      "inputs": [
        {
          "indexed": true,
          "internalType": "bytes32",
          "name": "role",
          "type": "bytes32"
        },
        {
          "indexed": true,
          "internalType": "bytes32",
          "name": "previousAdminRole",
          "type": "bytes32"
        },
        {
          "indexed": true,
          "internalType": "bytes32",
          "name": "newAdminRole",
          "type": "bytes32"
        }
      ],
      "name": "RoleAdminChanged",
      "type": "event"
    },
    {
      "anonymous": false,
      "inputs": [
        {
          "indexed": true,
          "internalType": "bytes32",
          "name": "role",
          "type": "bytes32"
        },
        {
          "indexed": true,
          "internalType": "address",
          "name": "account",
          "type": "address"
        },
        {
          "indexed": true,
          "internalType": "address",
          "name": "sender",
          "type": "address"
        }
      ],
      "name": "RoleGranted",
      "type": "event"
    },
    {
      "anonymous": false,
      "inputs": [
        {
          "indexed": true,
          "internalType": "bytes32",
          "name": "role",
          "type": "bytes32"
        },
        {
          "indexed": true,
          "internalType": "address",
          "name": "account",
          "type": "address"
        },
        {
          "indexed": true,
          "internalType": "address",
          "name": "sender",
          "type": "address"
        }
      ],
      "name": "RoleRevoked",
      "type": "event"
    },
    {
      "anonymous": false,
      "inputs": [
        {
          "indexed": false,
          "internalType": "address",
          "name": "account",
          "type": "address"
        }
      ],
      "name": "Unpaused",
      "type": "event"
    },
    {
      "inputs": [],
      "name": "DEFAULT_ADMIN_ROLE",
      "outputs": [
        {
          "internalType": "bytes32",
          "name": "",
          "type": "bytes32"
        }
      ],
      "stateMutability": "view",
      "type": "function",
      "constant": true
    },
    {
      "inputs": [],
      "name": "FACILITATOR_ROLE",
      "outputs": [
        {
          "internalType": "bytes32",
          "name": "",
          "type": "bytes32"
        }
      ],
      "stateMutability": "view",
      "type": "function",
      "constant": true
    },
    {
      "inputs": [],
      "name": "FUNDS_CLERK_ROLE",
      "outputs": [
        {
          "internalType": "bytes32",
          "name": "",
          "type": "bytes32"
        }
      ],
      "stateMutability": "view",
      "type": "function",
      "constant": true
    },
    {
      "inputs": [],
      "name": "amountToLock",
      "outputs": [
        {
          "internalType": "uint256",
          "name": "",
          "type": "uint256"
        }
      ],
      "stateMutability": "view",
      "type": "function",
      "constant": true
    },
    {
      "inputs": [
        {
          "internalType": "string",
          "name": "",
          "type": "string"
        },
        {
          "internalType": "uint256",
          "name": "",
          "type": "uint256"
        }
      ],
      "name": "eventAddresses",
      "outputs": [
        {
          "internalType": "address",
          "name": "",
          "type": "address"
        }
      ],
      "stateMutability": "view",
      "type": "function",
      "constant": true
    },
    {
      "inputs": [
        {
          "internalType": "string",
          "name": "",
          "type": "string"
        },
        {
          "internalType": "address",
          "name": "",
          "type": "address"
        }
      ],
      "name": "events",
      "outputs": [
        {
          "internalType": "enum Locker.LockedFundStatus",
          "name": "status",
          "type": "uint8"
        },
        {
          "internalType": "uint256",
          "name": "amount",
          "type": "uint256"
        }
      ],
      "stateMutability": "view",
      "type": "function",
      "constant": true
    },
    {
      "inputs": [
        {
          "internalType": "bytes32",
          "name": "role",
          "type": "bytes32"
        }
      ],
      "name": "getRoleAdmin",
      "outputs": [
        {
          "internalType": "bytes32",
          "name": "",
          "type": "bytes32"
        }
      ],
      "stateMutability": "view",
      "type": "function",
      "constant": true
    },
    {
      "inputs": [
        {
          "internalType": "bytes32",
          "name": "role",
          "type": "bytes32"
        },
        {
          "internalType": "address",
          "name": "account",
          "type": "address"
        }
      ],
      "name": "grantRole",
      "outputs": [],
      "stateMutability": "nonpayable",
      "type": "function"
    },
    {
      "inputs": [
        {
          "internalType": "bytes32",
          "name": "role",
          "type": "bytes32"
        },
        {
          "internalType": "address",
          "name": "account",
          "type": "address"
        }
      ],
      "name": "hasRole",
      "outputs": [
        {
          "internalType": "bool",
          "name": "",
          "type": "bool"
        }
      ],
      "stateMutability": "view",
      "type": "function",
      "constant": true
    },
    {
      "inputs": [],
      "name": "paused",
      "outputs": [
        {
          "internalType": "bool",
          "name": "",
          "type": "bool"
        }
      ],
      "stateMutability": "view",
      "type": "function",
      "constant": true
    },
    {
      "inputs": [
        {
          "internalType": "bytes32",
          "name": "role",
          "type": "bytes32"
        },
        {
          "internalType": "address",
          "name": "account",
          "type": "address"
        }
      ],
      "name": "renounceRole",
      "outputs": [],
      "stateMutability": "nonpayable",
      "type": "function"
    },
    {
      "inputs": [
        {
          "internalType": "bytes32",
          "name": "role",
          "type": "bytes32"
        },
        {
          "internalType": "address",
          "name": "account",
          "type": "address"
        }
      ],
      "name": "revokeRole",
      "outputs": [],
      "stateMutability": "nonpayable",
      "type": "function"
    },
    {
      "inputs": [
        {
          "internalType": "bytes4",
          "name": "interfaceId",
          "type": "bytes4"
        }
      ],
      "name": "supportsInterface",
      "outputs": [
        {
          "internalType": "bool",
          "name": "",
          "type": "bool"
        }
      ],
      "stateMutability": "view",
      "type": "function",
      "constant": true
    },
    {
      "inputs": [
        {
          "internalType": "address",
          "name": "admin",
          "type": "address"
        },
        {
          "internalType": "address payable",
          "name": "daoTreasure",
          "type": "address"
        }
      ],
      "name": "initialize",
      "outputs": [],
      "stateMutability": "nonpayable",
      "type": "function"
    },
    {
      "inputs": [
        {
          "internalType": "uint256",
          "name": "newAmountInWei",
          "type": "uint256"
        }
      ],
      "name": "setAmountToLock",
      "outputs": [],
      "stateMutability": "nonpayable",
      "type": "function"
    },
    {
      "inputs": [],
      "name": "getFacilitatorAddresses",
      "outputs": [
        {
          "internalType": "address[]",
          "name": "",
          "type": "address[]"
        }
      ],
      "stateMutability": "view",
      "type": "function",
      "constant": true
    },
    {
      "inputs": [
        {
          "internalType": "string",
          "name": "eventId",
          "type": "string"
        }
      ],
      "name": "lockFunds",
      "outputs": [],
      "stateMutability": "payable",
      "type": "function",
      "payable": true
    },
    {
      "inputs": [
        {
          "internalType": "string",
          "name": "eventId",
          "type": "string"
        }
      ],
      "name": "refund",
      "outputs": [],
      "stateMutability": "nonpayable",
      "type": "function"
    },
    {
      "inputs": [
        {
          "internalType": "string",
          "name": "eventId",
          "type": "string"
        },
        {
          "internalType": "address[]",
          "name": "addressesToRefund",
          "type": "address[]"
        }
      ],
      "name": "finalizeDeposit",
      "outputs": [],
      "stateMutability": "nonpayable",
      "type": "function"
    },
    {
      "inputs": [],
      "name": "withdrawSeizedFundsToDAOTreasure",
      "outputs": [],
      "stateMutability": "nonpayable",
      "type": "function"
    },
    {
      "inputs": [],
      "name": "pause",
      "outputs": [],
      "stateMutability": "nonpayable",
      "type": "function"
    },
    {
      "inputs": [],
      "name": "unpause",
      "outputs": [],
      "stateMutability": "nonpayable",
      "type": "function"
    },
    {
      "inputs": [
        {
          "internalType": "string",
          "name": "eventId",
          "type": "string"
        },
        {
          "internalType": "address",
          "name": "account",
          "type": "address"
        }
      ],
      "name": "overrideMakeRefundable",
      "outputs": [],
      "stateMutability": "nonpayable",
      "type": "function"
    },
    {
      "inputs": [
        {
          "internalType": "address payable",
          "name": "newDaoTreasureAddress",
          "type": "address"
        }
      ],
      "name": "setDaoTreasureAddress",
      "outputs": [],
      "stateMutability": "nonpayable",
      "type": "function"
    }
  ],
  "bytecode": "0x608060405234801561001057600080fd5b50613e4a806100206000396000f3fe60806040526004361061014b5760003560e01c8063853de185116100b6578063a7302b071161006f578063a7302b0714610447578063b37c088014610472578063c39829d51461049b578063d547741f146104c6578063efb3bfa9146104ef578063fe5f2e881461052d5761014b565b8063853de1851461033557806391d14854146103725780639c6f4e5d146103af578063a217fddf146103da578063a4cb824a14610405578063a60fb21b1461041c5761014b565b806331e295761161010857806331e295761461026157806336568abe1461028a5780633f4ba83a146102b3578063485cc955146102ca5780635c975abb146102f35780638456cb591461031e5761014b565b806301ffc9a7146101505780630f7f742a1461018d578063151802e9146101b6578063248a9ca3146101d25780632a0f6b9d1461020f5780632f2ff15d14610238575b600080fd5b34801561015c57600080fd5b5061017760048036038101906101729190612abb565b610556565b6040516101849190612b03565b60405180910390f35b34801561019957600080fd5b506101b460048036038101906101af9190612bd9565b6105d0565b005b6101d060048036038101906101cb9190612c5a565b610c4f565b005b3480156101de57600080fd5b506101f960048036038101906101f49190612cdd565b610f70565b6040516102069190612d19565b60405180910390f35b34801561021b57600080fd5b5061023660048036038101906102319190612d92565b610f90565b005b34801561024457600080fd5b5061025f600480360381019061025a9190612dfd565b611099565b005b34801561026d57600080fd5b5061028860048036038101906102839190612e3d565b6110c2565b005b34801561029657600080fd5b506102b160048036038101906102ac9190612dfd565b6112b5565b005b3480156102bf57600080fd5b506102c8611338565b005b3480156102d657600080fd5b506102f160048036038101906102ec9190612e9d565b61139f565b005b3480156102ff57600080fd5b506103086114fa565b6040516103159190612b03565b60405180910390f35b34801561032a57600080fd5b50610333611511565b005b34801561034157600080fd5b5061035c60048036038101906103579190613054565b611579565b60405161036991906130bf565b60405180910390f35b34801561037e57600080fd5b5061039960048036038101906103949190612dfd565b6115dd565b6040516103a69190612b03565b60405180910390f35b3480156103bb57600080fd5b506103c4611648565b6040516103d191906130e9565b60405180910390f35b3480156103e657600080fd5b506103ef61164e565b6040516103fc9190612d19565b60405180910390f35b34801561041157600080fd5b5061041a611655565b005b34801561042857600080fd5b50610431611ab1565b60405161043e9190612d19565b60405180910390f35b34801561045357600080fd5b5061045c611ad5565b6040516104699190612d19565b60405180910390f35b34801561047e57600080fd5b5061049960048036038101906104949190613104565b611af9565b005b3480156104a757600080fd5b506104b0611b19565b6040516104bd91906131ef565b60405180910390f35b3480156104d257600080fd5b506104ed60048036038101906104e89190612dfd565b611b2a565b005b3480156104fb57600080fd5b5061051660048036038101906105119190613211565b611b53565b6040516105249291906132e4565b60405180910390f35b34801561053957600080fd5b50610554600480360381019061054f9190612c5a565b611ba7565b005b60007f7965db0b000000000000000000000000000000000000000000000000000000007bffffffffffffffffffffffffffffffffffffffffffffffffffffffff1916827bffffffffffffffffffffffffffffffffffffffffffffffffffffffff191614806105c957506105c882611d92565b5b9050919050565b6105d86114fa565b15610618576040517f08c379a000000000000000000000000000000000000000000000000000000000815260040161060f9061336a565b60405180910390fd5b6106256000801b336115dd565b8061065657506106557f846f7827568b6c3241ebb30d6d2ab6d659ffbc624595d9b6f0ca8719db11d20e336115dd565b5b610695576040517f08c379a000000000000000000000000000000000000000000000000000000000815260040161068c906133d6565b60405180910390fd5b60008282905060d386866040516106ad929190613426565b9081526020016040518091039020805490506106c9919061346e565b905060008167ffffffffffffffff8111156106e7576106e6612ef3565b5b6040519080825280602002602001820160405280156107155781602001602082028036833780820191505090505b50905060005b848490508110156108ab576000600481111561073a5761073961326d565b5b60d2888860405161074c929190613426565b9081526020016040518091039020600087878581811061076f5761076e6134a2565b5b905060200201602081019061078491906134d1565b73ffffffffffffffffffffffffffffffffffffffff1673ffffffffffffffffffffffffffffffffffffffff16815260200190815260200160002060000160009054906101000a900460ff1660048111156107e1576107e061326d565b5b141561089857600160d288886040516107fb929190613426565b9081526020016040518091039020600087878581811061081e5761081d6134a2565b5b905060200201602081019061083391906134d1565b73ffffffffffffffffffffffffffffffffffffffff1673ffffffffffffffffffffffffffffffffffffffff16815260200190815260200160002060000160006101000a81548160ff021916908360048111156108925761089161326d565b5b02179055505b80806108a3906134fe565b91505061071b565b506000806000905060005b60d389896040516108c8929190613426565b908152602001604051809103902080549050811015610a95576000925060005b878790508110156109c257878782818110610906576109056134a2565b5b905060200201602081019061091b91906134d1565b73ffffffffffffffffffffffffffffffffffffffff1660d38b8b604051610943929190613426565b90815260200160405180910390208381548110610963576109626134a2565b5b9060005260206000200160009054906101000a900473ffffffffffffffffffffffffffffffffffffffff1673ffffffffffffffffffffffffffffffffffffffff1614156109af57600193505b80806109ba906134fe565b9150506108e8565b5082610a825760d389896040516109da929190613426565b908152602001604051809103902081815481106109fa576109f96134a2565b5b9060005260206000200160009054906101000a900473ffffffffffffffffffffffffffffffffffffffff16848381518110610a3857610a376134a2565b5b602002602001019073ffffffffffffffffffffffffffffffffffffffff16908173ffffffffffffffffffffffffffffffffffffffff1681525050600182610a7f9190613547565b91505b8080610a8d906134fe565b9150506108b6565b5060005b8351811015610c0d5760006004811115610ab657610ab561326d565b5b60d28a8a604051610ac8929190613426565b90815260200160405180910390206000868481518110610aeb57610aea6134a2565b5b602002602001015173ffffffffffffffffffffffffffffffffffffffff1673ffffffffffffffffffffffffffffffffffffffff16815260200190815260200160002060000160009054906101000a900460ff166004811115610b5057610b4f61326d565b5b1415610bfa57600360d28a8a604051610b6a929190613426565b90815260200160405180910390206000868481518110610b8d57610b8c6134a2565b5b602002602001015173ffffffffffffffffffffffffffffffffffffffff1673ffffffffffffffffffffffffffffffffffffffff16815260200190815260200160002060000160006101000a81548160ff02191690836004811115610bf457610bf361326d565b5b02179055505b8080610c05906134fe565b915050610a99565b50600083511115610c4557610c4360d060ce8a8a604051610c2f929190613426565b908152602001604051809103902054611dfc565b505b5050505050505050565b610c576114fa565b15610c97576040517f08c379a0000000000000000000000000000000000000000000000000000000008152600401610c8e9061336a565b60405180910390fd5b60cb543414610cdb576040517f08c379a0000000000000000000000000000000000000000000000000000000008152600401610cd2906135e9565b60405180910390fd5b600060d28383604051610cef929190613426565b908152602001604051809103902060003373ffffffffffffffffffffffffffffffffffffffff1673ffffffffffffffffffffffffffffffffffffffff1681526020019081526020016000206001015414610d7e576040517f08c379a0000000000000000000000000000000000000000000000000000000008152600401610d759061367b565b60405180910390fd5b600060d38383604051610d92929190613426565b9081526020016040518091039020805490501415610e295760cd6000815480929190610dbd906134fe565b9190505560ce8383604051610dd3929190613426565b908152602001604051809103902081905550818160cf600060ce8686604051610dfd929190613426565b90815260200160405180910390205481526020019081526020016000209190610e279291906129ac565b505b60d38282604051610e3b929190613426565b9081526020016040518091039020339080600181540180825580915050600190039060005260206000200160009091909190916101000a81548173ffffffffffffffffffffffffffffffffffffffff021916908373ffffffffffffffffffffffffffffffffffffffff160217905550604051806040016040528060006004811115610ec957610ec861326d565b5b81526020013481525060d28383604051610ee4929190613426565b908152602001604051809103902060003373ffffffffffffffffffffffffffffffffffffffff1673ffffffffffffffffffffffffffffffffffffffff16815260200190815260200160002060008201518160000160006101000a81548160ff02191690836004811115610f5a57610f5961326d565b5b0217905550602082015181600101559050505050565b600060656000838152602001908152602001600020600101549050919050565b610f986114fa565b15610fd8576040517f08c379a0000000000000000000000000000000000000000000000000000000008152600401610fcf9061336a565b60405180910390fd5b610fe56000801b336115dd565b8061101657506110157f846f7827568b6c3241ebb30d6d2ab6d659ffbc624595d9b6f0ca8719db11d20e336115dd565b5b611055576040517f08c379a000000000000000000000000000000000000000000000000000000000815260040161104c906133d6565b60405180910390fd5b8060cc60006101000a81548173ffffffffffffffffffffffffffffffffffffffff021916908373ffffffffffffffffffffffffffffffffffffffff16021790555050565b6110a282610f70565b6110b3816110ae611e16565b611e1e565b6110bd8383611ebb565b505050565b6110ca6114fa565b1561110a576040517f08c379a00000000000000000000000000000000000000000000000000000000081526004016111019061336a565b60405180910390fd5b6000801b61111f8161111a611e16565b611e1e565b600060d28585604051611133929190613426565b908152602001604051809103902060008473ffffffffffffffffffffffffffffffffffffffff1673ffffffffffffffffffffffffffffffffffffffff168152602001908152602001600020905060008160010154116111c7576040517f08c379a00000000000000000000000000000000000000000000000000000000081526004016111be906136e7565b60405180910390fd5b600260048111156111db576111da61326d565b5b8160000160009054906101000a900460ff1660048111156111ff576111fe61326d565b5b14158015611242575060048081111561121b5761121a61326d565b5b8160000160009054906101000a900460ff16600481111561123f5761123e61326d565b5b14155b611281576040517f08c379a000000000000000000000000000000000000000000000000000000000815260040161127890613779565b60405180910390fd5b60018160000160006101000a81548160ff021916908360048111156112a9576112a861326d565b5b02179055505050505050565b6112bd611e16565b73ffffffffffffffffffffffffffffffffffffffff168173ffffffffffffffffffffffffffffffffffffffff161461132a576040517f08c379a00000000000000000000000000000000000000000000000000000000081526004016113219061380b565b60405180910390fd5b6113348282611f5a565b5050565b6113406114fa565b61137f576040517f08c379a000000000000000000000000000000000000000000000000000000000815260040161137690613877565b60405180910390fd5b6000801b6113948161138f611e16565b611e1e565b61139c611fe5565b50565b600060019054906101000a900460ff166113c75760008054906101000a900460ff16156113d0565b6113cf612087565b5b61140f576040517f08c379a000000000000000000000000000000000000000000000000000000000815260040161140690613909565b60405180910390fd5b60008060019054906101000a900460ff16159050801561145f576001600060016101000a81548160ff02191690831515021790555060016000806101000a81548160ff0219169083151502179055505b611467612098565b61146f6120e9565b61147c6000801b84611ebb565b6753444835ec58000060cb81905550600160cd819055508160cc60006101000a81548173ffffffffffffffffffffffffffffffffffffffff021916908373ffffffffffffffffffffffffffffffffffffffff16021790555080156114f55760008060016101000a81548160ff0219169083151502179055505b505050565b6000609760009054906101000a900460ff16905090565b6115196114fa565b15611559576040517f08c379a00000000000000000000000000000000000000000000000000000000081526004016115509061336a565b60405180910390fd5b6000801b61156e81611569611e16565b611e1e565b611576612142565b50565b60d38280516020810182018051848252602083016020850120818352809550505050505081815481106115ab57600080fd5b906000526020600020016000915091509054906101000a900473ffffffffffffffffffffffffffffffffffffffff1681565b60006065600084815260200190815260200160002060000160008373ffffffffffffffffffffffffffffffffffffffff1673ffffffffffffffffffffffffffffffffffffffff16815260200190815260200160002060009054906101000a900460ff16905092915050565b60cb5481565b6000801b81565b61165d6114fa565b1561169d576040517f08c379a00000000000000000000000000000000000000000000000000000000081526004016116949061336a565b60405180910390fd5b6116aa6000801b336115dd565b806116db57506116da7f846f7827568b6c3241ebb30d6d2ab6d659ffbc624595d9b6f0ca8719db11d20e336115dd565b5b61171a576040517f08c379a0000000000000000000000000000000000000000000000000000000008152600401611711906133d6565b60405180910390fd5b60005b600061172960d06121e5565b1115611a3b57600061173d60d060006121fa565b9050600060d360cf60008481526020019081526020016000206040516117639190613a1e565b90815260200160405180910390208054806020026020016040519081016040528092919081815260200182805480156117f157602002820191906000526020600020905b8160009054906101000a900473ffffffffffffffffffffffffffffffffffffffff1673ffffffffffffffffffffffffffffffffffffffff16815260200190600101908083116117a7575b5050505050905060005b8151811015611a2757600360048111156118185761181761326d565b5b60d260cf600086815260200190815260200160002060405161183a9190613a1e565b9081526020016040518091039020600084848151811061185d5761185c6134a2565b5b602002602001015173ffffffffffffffffffffffffffffffffffffffff1673ffffffffffffffffffffffffffffffffffffffff16815260200190815260200160002060000160009054906101000a900460ff1660048111156118c2576118c161326d565b5b1415611a145760d260cf60008581526020019081526020016000206040516118ea9190613a1e565b9081526020016040518091039020600083838151811061190d5761190c6134a2565b5b602002602001015173ffffffffffffffffffffffffffffffffffffffff1673ffffffffffffffffffffffffffffffffffffffff168152602001908152602001600020600101548461195e9190613547565b9350600460d260cf60008681526020019081526020016000206040516119849190613a1e565b908152602001604051809103902060008484815181106119a7576119a66134a2565b5b602002602001015173ffffffffffffffffffffffffffffffffffffffff1673ffffffffffffffffffffffffffffffffffffffff16815260200190815260200160002060000160006101000a81548160ff02191690836004811115611a0e57611a0d61326d565b5b02179055505b8080611a1f906134fe565b9150506117fb565b50611a3360d083612214565b50505061171d565b6000811115611aae5760cc60009054906101000a900473ffffffffffffffffffffffffffffffffffffffff1673ffffffffffffffffffffffffffffffffffffffff166108fc829081150290604051600060405180830381858888f19350505050158015611aac573d6000803e3d6000fd5b505b50565b7f846f7827568b6c3241ebb30d6d2ab6d659ffbc624595d9b6f0ca8719db11d20e81565b7f0424cf38c8834beebcaa33d45624a52f86494e75143c4aef2aafdb8bd68c732e81565b6000801b611b0e81611b09611e16565b611e1e565b8160cb819055505050565b6060611b2560c961222e565b905090565b611b3382610f70565b611b4481611b3f611e16565b611e1e565b611b4e8383611f5a565b505050565b60d282805160208101820180518482526020830160208501208183528095505050505050602052806000526040600020600091509150508060000160009054906101000a900460ff16908060010154905082565b611baf6114fa565b15611bef576040517f08c379a0000000000000000000000000000000000000000000000000000000008152600401611be69061336a565b60405180910390fd5b600060d28383604051611c03929190613426565b908152602001604051809103902060003373ffffffffffffffffffffffffffffffffffffffff1673ffffffffffffffffffffffffffffffffffffffff168152602001908152602001600020905060003390506000826001015411611c9c576040517f08c379a0000000000000000000000000000000000000000000000000000000008152600401611c93906136e7565b60405180910390fd5b60016004811115611cb057611caf61326d565b5b8260000160009054906101000a900460ff166004811115611cd457611cd361326d565b5b14611d14576040517f08c379a0000000000000000000000000000000000000000000000000000000008152600401611d0b90613aa7565b60405180910390fd5b60028260000160006101000a81548160ff02191690836004811115611d3c57611d3b61326d565b5b02179055508073ffffffffffffffffffffffffffffffffffffffff166108fc83600101549081150290604051600060405180830381858888f19350505050158015611d8b573d6000803e3d6000fd5b5050505050565b60007f01ffc9a7000000000000000000000000000000000000000000000000000000007bffffffffffffffffffffffffffffffffffffffffffffffffffffffff1916827bffffffffffffffffffffffffffffffffffffffffffffffffffffffff1916149050919050565b6000611e0e836000018360001b61224f565b905092915050565b600033905090565b611e2882826115dd565b611eb757611e4d8173ffffffffffffffffffffffffffffffffffffffff1660146122bf565b611e5b8360001c60206122bf565b604051602001611e6c929190613bce565b6040516020818303038152906040526040517f08c379a0000000000000000000000000000000000000000000000000000000008152600401611eae9190613c41565b60405180910390fd5b5050565b611ec36114fa565b15611f03576040517f08c379a0000000000000000000000000000000000000000000000000000000008152600401611efa9061336a565b60405180910390fd5b611f0d82826124fb565b7f0424cf38c8834beebcaa33d45624a52f86494e75143c4aef2aafdb8bd68c732e82148015611f445750611f4260c9826125dc565b155b15611f5657611f5460c98261260c565b505b5050565b611f626114fa565b15611fa2576040517f08c379a0000000000000000000000000000000000000000000000000000000008152600401611f999061336a565b60405180910390fd5b611fac828261263c565b7f0424cf38c8834beebcaa33d45624a52f86494e75143c4aef2aafdb8bd68c732e821415611fe157611fdf60c98261271e565b505b5050565b611fed6114fa565b61202c576040517f08c379a000000000000000000000000000000000000000000000000000000000815260040161202390613877565b60405180910390fd5b6000609760006101000a81548160ff0219169083151502179055507f5db9ee0a495bf2e6ff9c91a7834c1ba4fdd244a5e8aa4e537bd38aeae4b073aa612070611e16565b60405161207d91906130bf565b60405180910390a1565b60006120923061274e565b15905090565b600060019054906101000a900460ff166120e7576040517f08c379a00000000000000000000000000000000000000000000000000000000081526004016120de90613cd5565b60405180910390fd5b565b600060019054906101000a900460ff16612138576040517f08c379a000000000000000000000000000000000000000000000000000000000815260040161212f90613cd5565b60405180910390fd5b612140612771565b565b61214a6114fa565b1561218a576040517f08c379a00000000000000000000000000000000000000000000000000000000081526004016121819061336a565b60405180910390fd5b6001609760006101000a81548160ff0219169083151502179055507f62e78cea01bee320cd4e420270b5ea74000d11b0c9f74754ebdbfc544b05a2586121ce611e16565b6040516121db91906130bf565b60405180910390a1565b60006121f3826000016127dd565b9050919050565b600061220983600001836127ee565b60001c905092915050565b6000612226836000018360001b612819565b905092915050565b6060600061223e8360000161292d565b905060608190508092505050919050565b600061225b8383612989565b6122b45782600001829080600181540180825580915050600190039060005260206000200160009091909190915055826000018054905083600101600084815260200190815260200160002081905550600190506122b9565b600090505b92915050565b6060600060028360026122d29190613cf5565b6122dc9190613547565b67ffffffffffffffff8111156122f5576122f4612ef3565b5b6040519080825280601f01601f1916602001820160405280156123275781602001600182028036833780820191505090505b5090507f30000000000000000000000000000000000000000000000000000000000000008160008151811061235f5761235e6134a2565b5b60200101907effffffffffffffffffffffffffffffffffffffffffffffffffffffffffffff1916908160001a9053507f7800000000000000000000000000000000000000000000000000000000000000816001815181106123c3576123c26134a2565b5b60200101907effffffffffffffffffffffffffffffffffffffffffffffffffffffffffffff1916908160001a905350600060018460026124039190613cf5565b61240d9190613547565b90505b60018111156124ad577f3031323334353637383961626364656600000000000000000000000000000000600f86166010811061244f5761244e6134a2565b5b1a60f81b828281518110612466576124656134a2565b5b60200101907effffffffffffffffffffffffffffffffffffffffffffffffffffffffffffff1916908160001a905350600485901c9450806124a690613d4f565b9050612410565b50600084146124f1576040517f08c379a00000000000000000000000000000000000000000000000000000000081526004016124e890613dc5565b60405180910390fd5b8091505092915050565b61250582826115dd565b6125d85760016065600084815260200190815260200160002060000160008373ffffffffffffffffffffffffffffffffffffffff1673ffffffffffffffffffffffffffffffffffffffff16815260200190815260200160002060006101000a81548160ff02191690831515021790555061257d611e16565b73ffffffffffffffffffffffffffffffffffffffff168173ffffffffffffffffffffffffffffffffffffffff16837f2f8788117e7eff1d82e926ec794901d17c78024a50270940304540a733656f0d60405160405180910390a45b5050565b6000612604836000018373ffffffffffffffffffffffffffffffffffffffff1660001b612989565b905092915050565b6000612634836000018373ffffffffffffffffffffffffffffffffffffffff1660001b61224f565b905092915050565b61264682826115dd565b1561271a5760006065600084815260200190815260200160002060000160008373ffffffffffffffffffffffffffffffffffffffff1673ffffffffffffffffffffffffffffffffffffffff16815260200190815260200160002060006101000a81548160ff0219169083151502179055506126bf611e16565b73ffffffffffffffffffffffffffffffffffffffff168173ffffffffffffffffffffffffffffffffffffffff16837ff6391f5c32d9c69d2a47ea670b442974b53935d1edc7fd64eb21e047a839171b60405160405180910390a45b5050565b6000612746836000018373ffffffffffffffffffffffffffffffffffffffff1660001b612819565b905092915050565b6000808273ffffffffffffffffffffffffffffffffffffffff163b119050919050565b600060019054906101000a900460ff166127c0576040517f08c379a00000000000000000000000000000000000000000000000000000000081526004016127b790613cd5565b60405180910390fd5b6000609760006101000a81548160ff021916908315150217905550565b600081600001805490509050919050565b6000826000018281548110612806576128056134a2565b5b9060005260206000200154905092915050565b6000808360010160008481526020019081526020016000205490506000811461292157600060018261284b919061346e565b9050600060018660000180549050612863919061346e565b90508181146128d2576000866000018281548110612884576128836134a2565b5b90600052602060002001549050808760000184815481106128a8576128a76134a2565b5b90600052602060002001819055508387600101600083815260200190815260200160002081905550505b856000018054806128e6576128e5613de5565b5b600190038181906000526020600020016000905590558560010160008681526020019081526020016000206000905560019350505050612927565b60009150505b92915050565b60608160000180548060200260200160405190810160405280929190818152602001828054801561297d57602002820191906000526020600020905b815481526020019060010190808311612969575b50505050509050919050565b600080836001016000848152602001908152602001600020541415905092915050565b8280546129b890613958565b90600052602060002090601f0160209004810192826129da5760008555612a21565b82601f106129f357803560ff1916838001178555612a21565b82800160010185558215612a21579182015b82811115612a20578235825591602001919060010190612a05565b5b509050612a2e9190612a32565b5090565b5b80821115612a4b576000816000905550600101612a33565b5090565b6000604051905090565b600080fd5b600080fd5b60007fffffffff0000000000000000000000000000000000000000000000000000000082169050919050565b612a9881612a63565b8114612aa357600080fd5b50565b600081359050612ab581612a8f565b92915050565b600060208284031215612ad157612ad0612a59565b5b6000612adf84828501612aa6565b91505092915050565b60008115159050919050565b612afd81612ae8565b82525050565b6000602082019050612b186000830184612af4565b92915050565b600080fd5b600080fd5b600080fd5b60008083601f840112612b4357612b42612b1e565b5b8235905067ffffffffffffffff811115612b6057612b5f612b23565b5b602083019150836001820283011115612b7c57612b7b612b28565b5b9250929050565b60008083601f840112612b9957612b98612b1e565b5b8235905067ffffffffffffffff811115612bb657612bb5612b23565b5b602083019150836020820283011115612bd257612bd1612b28565b5b9250929050565b60008060008060408587031215612bf357612bf2612a59565b5b600085013567ffffffffffffffff811115612c1157612c10612a5e565b5b612c1d87828801612b2d565b9450945050602085013567ffffffffffffffff811115612c4057612c3f612a5e565b5b612c4c87828801612b83565b925092505092959194509250565b60008060208385031215612c7157612c70612a59565b5b600083013567ffffffffffffffff811115612c8f57612c8e612a5e565b5b612c9b85828601612b2d565b92509250509250929050565b6000819050919050565b612cba81612ca7565b8114612cc557600080fd5b50565b600081359050612cd781612cb1565b92915050565b600060208284031215612cf357612cf2612a59565b5b6000612d0184828501612cc8565b91505092915050565b612d1381612ca7565b82525050565b6000602082019050612d2e6000830184612d0a565b92915050565b600073ffffffffffffffffffffffffffffffffffffffff82169050919050565b6000612d5f82612d34565b9050919050565b612d6f81612d54565b8114612d7a57600080fd5b50565b600081359050612d8c81612d66565b92915050565b600060208284031215612da857612da7612a59565b5b6000612db684828501612d7d565b91505092915050565b6000612dca82612d34565b9050919050565b612dda81612dbf565b8114612de557600080fd5b50565b600081359050612df781612dd1565b92915050565b60008060408385031215612e1457612e13612a59565b5b6000612e2285828601612cc8565b9250506020612e3385828601612de8565b9150509250929050565b600080600060408486031215612e5657612e55612a59565b5b600084013567ffffffffffffffff811115612e7457612e73612a5e565b5b612e8086828701612b2d565b93509350506020612e9386828701612de8565b9150509250925092565b60008060408385031215612eb457612eb3612a59565b5b6000612ec285828601612de8565b9250506020612ed385828601612d7d565b9150509250929050565b600080fd5b6000601f19601f8301169050919050565b7f4e487b7100000000000000000000000000000000000000000000000000000000600052604160045260246000fd5b612f2b82612ee2565b810181811067ffffffffffffffff82111715612f4a57612f49612ef3565b5b80604052505050565b6000612f5d612a4f565b9050612f698282612f22565b919050565b600067ffffffffffffffff821115612f8957612f88612ef3565b5b612f9282612ee2565b9050602081019050919050565b82818337600083830152505050565b6000612fc1612fbc84612f6e565b612f53565b905082815260208101848484011115612fdd57612fdc612edd565b5b612fe8848285612f9f565b509392505050565b600082601f83011261300557613004612b1e565b5b8135613015848260208601612fae565b91505092915050565b6000819050919050565b6130318161301e565b811461303c57600080fd5b50565b60008135905061304e81613028565b92915050565b6000806040838503121561306b5761306a612a59565b5b600083013567ffffffffffffffff81111561308957613088612a5e565b5b61309585828601612ff0565b92505060206130a68582860161303f565b9150509250929050565b6130b981612dbf565b82525050565b60006020820190506130d460008301846130b0565b92915050565b6130e38161301e565b82525050565b60006020820190506130fe60008301846130da565b92915050565b60006020828403121561311a57613119612a59565b5b60006131288482850161303f565b91505092915050565b600081519050919050565b600082825260208201905092915050565b6000819050602082019050919050565b61316681612dbf565b82525050565b6000613178838361315d565b60208301905092915050565b6000602082019050919050565b600061319c82613131565b6131a6818561313c565b93506131b18361314d565b8060005b838110156131e25781516131c9888261316c565b97506131d483613184565b9250506001810190506131b5565b5085935050505092915050565b600060208201905081810360008301526132098184613191565b905092915050565b6000806040838503121561322857613227612a59565b5b600083013567ffffffffffffffff81111561324657613245612a5e565b5b61325285828601612ff0565b925050602061326385828601612de8565b9150509250929050565b7f4e487b7100000000000000000000000000000000000000000000000000000000600052602160045260246000fd5b600581106132ad576132ac61326d565b5b50565b60008190506132be8261329c565b919050565b60006132ce826132b0565b9050919050565b6132de816132c3565b82525050565b60006040820190506132f960008301856132d5565b61330660208301846130da565b9392505050565b600082825260208201905092915050565b7f5061757361626c653a2070617573656400000000000000000000000000000000600082015250565b600061335460108361330d565b915061335f8261331e565b602082019050919050565b6000602082019050818103600083015261338381613347565b9050919050565b7f556e617574686f72697a65640000000000000000000000000000000000000000600082015250565b60006133c0600c8361330d565b91506133cb8261338a565b602082019050919050565b600060208201905081810360008301526133ef816133b3565b9050919050565b600081905092915050565b600061340d83856133f6565b935061341a838584612f9f565b82840190509392505050565b6000613433828486613401565b91508190509392505050565b7f4e487b7100000000000000000000000000000000000000000000000000000000600052601160045260246000fd5b60006134798261301e565b91506134848361301e565b9250828210156134975761349661343f565b5b828203905092915050565b7f4e487b7100000000000000000000000000000000000000000000000000000000600052603260045260246000fd5b6000602082840312156134e7576134e6612a59565b5b60006134f584828501612de8565b91505092915050565b60006135098261301e565b91507fffffffffffffffffffffffffffffffffffffffffffffffffffffffffffffffff82141561353c5761353b61343f565b5b600182019050919050565b60006135528261301e565b915061355d8361301e565b9250827fffffffffffffffffffffffffffffffffffffffffffffffffffffffffffffffff038211156135925761359161343f565b5b828201905092915050565b7f496e76616c696420616d6f756e74000000000000000000000000000000000000600082015250565b60006135d3600e8361330d565b91506135de8261359d565b602082019050919050565b60006020820190508181036000830152613602816135c6565b9050919050565b7f416c7265616479206c6f636b65642066756e647320666f72207468697320657660008201527f656e740000000000000000000000000000000000000000000000000000000000602082015250565b600061366560238361330d565b915061367082613609565b604082019050919050565b6000602082019050818103600083015261369481613658565b9050919050565b7f4e6f206c6f636b65642066756e6420666f756e642e0000000000000000000000600082015250565b60006136d160158361330d565b91506136dc8261369b565b602082019050919050565b60006020820190508181036000830152613700816136c4565b9050919050565b7f46756e64732068617665206265656e207365697a6564206f7220726566756e6460008201527f656420616c72656164792e000000000000000000000000000000000000000000602082015250565b6000613763602b8361330d565b915061376e82613707565b604082019050919050565b6000602082019050818103600083015261379281613756565b9050919050565b7f416363657373436f6e74726f6c3a2063616e206f6e6c792072656e6f756e636560008201527f20726f6c657320666f722073656c660000000000000000000000000000000000602082015250565b60006137f5602f8361330d565b915061380082613799565b604082019050919050565b60006020820190508181036000830152613824816137e8565b9050919050565b7f5061757361626c653a206e6f7420706175736564000000000000000000000000600082015250565b600061386160148361330d565b915061386c8261382b565b602082019050919050565b6000602082019050818103600083015261389081613854565b9050919050565b7f496e697469616c697a61626c653a20636f6e747261637420697320616c72656160008201527f647920696e697469616c697a6564000000000000000000000000000000000000602082015250565b60006138f3602e8361330d565b91506138fe82613897565b604082019050919050565b60006020820190508181036000830152613922816138e6565b9050919050565b7f4e487b7100000000000000000000000000000000000000000000000000000000600052602260045260246000fd5b6000600282049050600182168061397057607f821691505b6020821081141561398457613983613929565b5b50919050565b60008190508160005260206000209050919050565b600081546139ac81613958565b6139b681866133f6565b945060018216600081146139d157600181146139e257613a15565b60ff19831686528186019350613a15565b6139eb8561398a565b60005b83811015613a0d578154818901526001820191506020810190506139ee565b838801955050505b50505092915050565b6000613a2a828461399f565b915081905092915050565b7f46756e647320617265206e6f74206d61726b656420617320726566756e64616260008201527f6c65000000000000000000000000000000000000000000000000000000000000602082015250565b6000613a9160228361330d565b9150613a9c82613a35565b604082019050919050565b60006020820190508181036000830152613ac081613a84565b9050919050565b7f416363657373436f6e74726f6c3a206163636f756e7420000000000000000000600082015250565b6000613afd6017836133f6565b9150613b0882613ac7565b601782019050919050565b600081519050919050565b60005b83811015613b3c578082015181840152602081019050613b21565b83811115613b4b576000848401525b50505050565b6000613b5c82613b13565b613b6681856133f6565b9350613b76818560208601613b1e565b80840191505092915050565b7f206973206d697373696e6720726f6c6520000000000000000000000000000000600082015250565b6000613bb86011836133f6565b9150613bc382613b82565b601182019050919050565b6000613bd982613af0565b9150613be58285613b51565b9150613bf082613bab565b9150613bfc8284613b51565b91508190509392505050565b6000613c1382613b13565b613c1d818561330d565b9350613c2d818560208601613b1e565b613c3681612ee2565b840191505092915050565b60006020820190508181036000830152613c5b8184613c08565b905092915050565b7f496e697469616c697a61626c653a20636f6e7472616374206973206e6f74206960008201527f6e697469616c697a696e67000000000000000000000000000000000000000000602082015250565b6000613cbf602b8361330d565b9150613cca82613c63565b604082019050919050565b60006020820190508181036000830152613cee81613cb2565b9050919050565b6000613d008261301e565b9150613d0b8361301e565b9250817fffffffffffffffffffffffffffffffffffffffffffffffffffffffffffffffff0483118215151615613d4457613d4361343f565b5b828202905092915050565b6000613d5a8261301e565b91506000821415613d6e57613d6d61343f565b5b600182039050919050565b7f537472696e67733a20686578206c656e67746820696e73756666696369656e74600082015250565b6000613daf60208361330d565b9150613dba82613d79565b602082019050919050565b60006020820190508181036000830152613dde81613da2565b9050919050565b7f4e487b7100000000000000000000000000000000000000000000000000000000600052603160045260246000fdfea2646970667358221220d8d8bbfd68df214b5a637aab1c832642e0d09babd8da76de1478647cc6dcc3dc64736f6c634300080c0033",
  "immutableReferences": {},
  "source": "// SPDX-License-Identifier: MIT\npragma solidity >=0.4.22 <0.9.0;\n\nimport \"@openzeppelin/contracts-upgradeable/access/AccessControlUpgradeable.sol\";\nimport \"@openzeppelin/contracts/utils/structs/EnumerableSet.sol\";\nimport \"@openzeppelin/contracts-upgradeable/security/PausableUpgradeable.sol\";\nimport \"@openzeppelin/contracts-upgradeable/proxy/utils/Initializable.sol\";\n\ncontract Locker is Initializable, AccessControlUpgradeable, PausableUpgradeable {\n  EnumerableSet.AddressSet private _facilitators;\n  uint public amountToLock;\n  address payable private daoTreasureAddress;\n  uint private nextEventIndex;\n  enum LockedFundStatus {\n    pending, \n    toBeRefunded,\n    refunded,\n    toBeSeized,\n    seized\n  }\n  struct LockedFund {\n    LockedFundStatus status;\n    uint amount;\n  }\n\n  mapping(string => uint256) internal eventIndexes;\n  mapping(uint256 => string) internal eventByIndex;\n  EnumerableSet.UintSet eventsToScanForSeizable;\n\n  // maps events to funds locked by individual addresses\n  mapping(string => mapping(address => LockedFund)) public events;\n  mapping(string => address[]) public eventAddresses;\n\n  function initialize (address admin, address payable daoTreasure) public initializer {\n    AccessControlUpgradeable.__AccessControl_init();\n    PausableUpgradeable.__Pausable_init();\n    _grantRole(DEFAULT_ADMIN_ROLE, admin);\n    amountToLock = 6000000000000000000;\n    nextEventIndex = 1;\n    daoTreasureAddress = daoTreasure;\n  }\n\n  function setAmountToLock (uint newAmountInWei) public onlyRole(DEFAULT_ADMIN_ROLE) {\n    amountToLock = newAmountInWei;\n  }\n\n  bytes32 public constant FACILITATOR_ROLE = keccak256(\"FACILITATOR_ROLE\");\n  bytes32 public constant FUNDS_CLERK_ROLE = keccak256(\"FUNDS_CLERK_ROLE\");\n\n  function getFacilitatorAddresses() public view returns(address[] memory) {\n    return EnumerableSet.values(_facilitators);\n  }\n\n  function _grantRole(bytes32 role, address account) internal override whenNotPaused {\n    super._grantRole(role, account);\n    if(role == FACILITATOR_ROLE && !EnumerableSet.contains(_facilitators, account)) {\n      EnumerableSet.add(_facilitators, account);\n    }\n  }\n\n  function _revokeRole(bytes32 role, address account) internal override whenNotPaused {\n    super._revokeRole(role, account);\n    if(role == FACILITATOR_ROLE) {\n        EnumerableSet.remove(_facilitators,account);\n    }\n  }\n\n  function lockFunds(string calldata eventId) public payable whenNotPaused {\n    require(msg.value == amountToLock, 'Invalid amount');\n    // Checks the same address did not already lock funds for the same event\n    require(events[eventId][msg.sender].amount == 0, 'Already locked funds for this event');\n    if(eventAddresses[eventId].length == 0) {\n      //Need to define a uint index for each event, and a way to get the eventId from its index, and vice versa\n      //This is because we want to use a enumerable set to keep track of the events that need \n      //to be seized (otherwise the contract would have to loop each time through all the events ever created)\n      //Enumerable sets have no handling of strings, but well of uint, hence the need to map our string event ids to uint's\n      eventIndexes[eventId] = nextEventIndex ++;\n      eventByIndex[eventIndexes[eventId]] = eventId;\n    }\n    eventAddresses[eventId].push(msg.sender);\n    events[eventId][msg.sender] = LockedFund(LockedFundStatus.pending, msg.value);\n  }\n\n  function refund(string calldata eventId) public whenNotPaused {\n    LockedFund storage lockedFund= events[eventId][msg.sender];\n    address payable target = payable(msg.sender);\n    require(lockedFund.amount > 0, 'No locked fund found.');\n    require(lockedFund.status == LockedFundStatus.toBeRefunded, 'Funds are not marked as refundable');\n    lockedFund.status = LockedFundStatus.refunded;\n    target.transfer(lockedFund.amount);\n  }\n\n  function finalizeDeposit(string calldata eventId, address[] calldata addressesToRefund) public whenNotPaused {\n    require(hasRole(DEFAULT_ADMIN_ROLE ,msg.sender) || hasRole(FUNDS_CLERK_ROLE, msg.sender), 'Unauthorized');\n    uint numberOfaddressesToSeize = uint(eventAddresses[eventId].length) - uint(addressesToRefund.length);\n    address[] memory addressesToSeize = new address[](numberOfaddressesToSeize);\n\n    for (uint i = 0; i < addressesToRefund.length; i++) {\n        if(events[eventId][addressesToRefund[i]].status == LockedFundStatus.pending){\n          events[eventId][addressesToRefund[i]].status = LockedFundStatus.toBeRefunded;\n        }\n    }\n\n    //automatically mark all other addresses as seizable\n    bool refunded;\n    uint currentToSeizeIndex = 0;\n    for (uint i = 0; i < eventAddresses[eventId].length; i ++) {\n        refunded = false;\n        for (uint j = 0; j < addressesToRefund.length; j ++) {\n          if(eventAddresses[eventId][i] == addressesToRefund[j]) {\n            refunded = true;\n          }\n        }\n        if(!refunded) {\n          addressesToSeize[currentToSeizeIndex] = eventAddresses[eventId][i];\n          currentToSeizeIndex = currentToSeizeIndex + 1;\n        }\n    }\n    for (uint i = 0; i < addressesToSeize.length; i++) {\n        if(events[eventId][addressesToSeize[i]].status == LockedFundStatus.pending){\n          events[eventId][addressesToSeize[i]].status = LockedFundStatus.toBeSeized;\n        }\n    }\n    if(addressesToSeize.length > 0) {\n      EnumerableSet.add(eventsToScanForSeizable, eventIndexes[eventId]);\n    }\n  }\n\n  function withdrawSeizedFundsToDAOTreasure() public whenNotPaused {\n    require(hasRole(DEFAULT_ADMIN_ROLE ,msg.sender) || hasRole(FUNDS_CLERK_ROLE, msg.sender), 'Unauthorized');\n    uint amountToSeize = 0;\n    while(EnumerableSet.length(eventsToScanForSeizable) > 0) {\n      uint currentEventIndex = EnumerableSet.at(eventsToScanForSeizable, 0);\n      address[] memory currentEventAddresses = eventAddresses[eventByIndex[currentEventIndex]];\n      for (uint j = 0; j < currentEventAddresses.length; j ++) {\n        if(events[eventByIndex[currentEventIndex]][currentEventAddresses[j]].status == LockedFundStatus.toBeSeized) {\n          amountToSeize += events[eventByIndex[currentEventIndex]][currentEventAddresses[j]].amount;\n          events[eventByIndex[currentEventIndex]][currentEventAddresses[j]].status = LockedFundStatus.seized;\n        }\n      }\n      EnumerableSet.remove(eventsToScanForSeizable, currentEventIndex);\n    }\n    if(amountToSeize > 0) {\n      daoTreasureAddress.transfer(amountToSeize);\n    }\n  }\n\n  function pause() public whenNotPaused onlyRole(DEFAULT_ADMIN_ROLE) {\n    _pause();\n  }\n\n  function unpause() public whenPaused onlyRole(DEFAULT_ADMIN_ROLE) {\n    _unpause();\n  }\n\n  //Safety method to allow the administrator to set a fund as refundable\n  function overrideMakeRefundable(string calldata eventId, address account) public whenNotPaused onlyRole(DEFAULT_ADMIN_ROLE) {\n    LockedFund storage lockedFund= events[eventId][account];\n    require(lockedFund.amount > 0, 'No locked fund found.');\n    require(lockedFund.status != LockedFundStatus.refunded && lockedFund.status != LockedFundStatus.seized, 'Funds have been seized or refunded already.');\n    lockedFund.status = LockedFundStatus.toBeRefunded;\n  }\n\n  function setDaoTreasureAddress(address payable newDaoTreasureAddress) public whenNotPaused {\n    require(hasRole(DEFAULT_ADMIN_ROLE ,msg.sender) || hasRole(FUNDS_CLERK_ROLE, msg.sender), 'Unauthorized');\n    daoTreasureAddress = newDaoTreasureAddress;\n  }\n}\n",
  "sourcePath": "/Users/bertrandlarsy/code/theweek/src/blockchain/contracts/Locker.sol",
  "compiler": {
    "name": "solc",
    "version": "0.8.12+commit.f00d7308.Emscripten.clang"
  },
  "schemaVersion": "3.4.6",
  "updatedAt": "2022-05-08T10:33:55.039Z",
  "networkType": "ethereum",
  "devdoc": {
    "kind": "dev",
    "methods": {
      "getRoleAdmin(bytes32)": {
        "details": "Returns the admin role that controls `role`. See {grantRole} and {revokeRole}. To change a role's admin, use {_setRoleAdmin}."
      },
      "grantRole(bytes32,address)": {
        "details": "Grants `role` to `account`. If `account` had not been already granted `role`, emits a {RoleGranted} event. Requirements: - the caller must have ``role``'s admin role."
      },
      "hasRole(bytes32,address)": {
        "details": "Returns `true` if `account` has been granted `role`."
      },
      "paused()": {
        "details": "Returns true if the contract is paused, and false otherwise."
      },
      "renounceRole(bytes32,address)": {
        "details": "Revokes `role` from the calling account. Roles are often managed via {grantRole} and {revokeRole}: this function's purpose is to provide a mechanism for accounts to lose their privileges if they are compromised (such as when a trusted device is misplaced). If the calling account had been revoked `role`, emits a {RoleRevoked} event. Requirements: - the caller must be `account`."
      },
      "revokeRole(bytes32,address)": {
        "details": "Revokes `role` from `account`. If `account` had been granted `role`, emits a {RoleRevoked} event. Requirements: - the caller must have ``role``'s admin role."
      },
      "supportsInterface(bytes4)": {
        "details": "See {IERC165-supportsInterface}."
      }
    },
    "version": 1
  },
  "userdoc": {
    "kind": "user",
    "methods": {},
    "version": 1
  }
}